:02000002D0002C
:1040000000400D00A45C0D00000006000C0005013E
:084010000401E80500000000B6
:04401800B4580D008B
:10401C0009480A49884208B505D0094A824202D0AB
:10402C00121A01F0FDFB0748074A0021121A01F091
:10403C0002FC014808BD00BF40E30320145C0D00E6
:10404C00A8E30320A8E30320F0E7032070B500F0F9
:10405C0049FE074C074BE41AA40800251E46A5424E
:10406C0004D056F8253098470135F8E770BD00BFED
:10407C00085C0D00C85B0D0000F01CB808B500F022
:10408C0077F8BDE8084000F0EFBD00F0C9BC00F0C7
:10409C00C7BC0078B0FA80F0400970470123037068
:1040AC00704710B50446006808B100F0B9FC204612
:1040BC0010BD000010B50A4800F0C3F8002400221F
:1040CC001146104600F0E1FAA1B20246044800F095
:1040DC0091FA0134024800F0EBF80C2CEFD110BD32
:1040EC00ACE3032070B500240025E6B20022314673
:1040FC00104600F0CAFAA9B202461C4800F07AFA3F
:10410C0001351A4800F0D4F80C2DEFD105200134FC
:10411C0000F06CFD322CE7D140F2D66000F066FD69
:10412C0000253224AEB20022E1B2104600F0ADFA06
:10413C00314602460D4800F05DFA0C4800F0B8F824
:10414C00052000F053FD013CEDD1224621462046CE
:10415C0000F09BFA31460246044800F04BFA013558
:10416C00024800F0A5F80C2DDBD170BDACE30320A8
:10417C0008B5FFF7B7FF41F28830BDE8084000F002
:10418C0035BD000038B5114C114D00F09DFA0023DF
:10419C002360A380A37123814FF6FF7363810320F7
:1041AC0000F0BAFB20460B4C0B492A4601F0C0F933
:1041BC00022306220C21204600F068F82A462046ED
:1041CC000649BDE8384001F0B3B900BFC0E3032095
:1041DC00A8E30320ACE30320AF400D00F9410D0030
:1041EC0000F072BA00F0B0BA00F0A6BA10B50446EE
:1041FC00C06808B100F014FC23781BB10021E079F1
:10420C0001F02CF9204610BD38B50446C0680D46A7
:10421C0008B100F005FCA379062B0CBF0420032089
:10422C0010FB05F080B2A08000F0F2FBE06028B13A
:10423C00A288002101F0FFFA658038BDA080608063
:10424C0038BD10B504460121C07901F007F90021F1
:10425C00E07901F014F90123237010BD38B503780F
:10426C0005460C461BB10021C07901F0F7F82B78FC
:10427C00EC7153B1A4B22046012101F0EFF82046B5
:10428C000021BDE8384001F0FAB838BD70B5002502
:10429C0004461646837105700572C5600561FFF70B
:1042AC00B3FF20463146FFF7D9FF204670BD000012
:1042BC00C368002B00F08B812DE9F04F8379023B12
:1042CC00DBB2042B9CBFC44A52F8234087B005468E
:1042DC0088BF3224FFF786FF2B69C01AA042F9D39E
:1042EC00BE4AAB8807CA06AC04E90700039C1B0155
:1042FC00D4F800250433019322B9D4F86035002B8F
:10430C00C0F25581049CD4F8003523B9D4F860353B
:10431C00002BC0F23C81059CD4F800351BB9D4F8B5
:10432C006035002B6EDBAE4BEA791E68AD4CAE49A6
:10433C00E0681201B31840F080705B78B75CE06005
:10434C000A6803F01F0343EA471301273A430A6044
:10435C000C46A888D5F80C90D4F804A09F40884649
:10436C00002844D0CC4600224FF0A0411CF801EBB1
:10437C000820802663689B1A462BFBD9D8F80420AA
:10438C00D1F808351EEA060F43EA0703C1F80835D1
:10439C002FD063689B1A282BFBD9D1F80C35013828
:1043AC0043EA07034FEA5606C1F80C35E2D1C9EBD4
:1043BC000C03A8889BB29842D8D84FF4307303FBF7
:1043CC0000F063689B1A462BFBD9D8F80430CAEB73
:1043DC00030A8245C0F0D5804FF49670FFF704FFB6
:1043EC00A888D5F80C90D4F804A00028BAD10246BD
:1043FC00E7E763689B1A112BCFD863689B1A112BC4
:10440C00F7D9CAE7D4F86435002B8CDAD4F86835C0
:10441C00002B88DAD4F86C35002B84DA019800F084
:10442C00F7FA00283FF47FAFAB88002B00F0D08068
:10443C0000273B466D4E6E4900E01346EA68D25D9C
:10444C0003F1010E12F0800F14BFB04688461FFA1C
:10445C008EFE12F0400F14BFB146894612F0200FA9
:10446C0020F8138018BFB24620F81E9008BF8A4669
:10447C0003F1020812F0100F03F1030E14BFB4463F
:10448C008C461FFA88F812F0080F1FFA8EFE03F103
:10449C0004091FFA89F914BFB3468B4612F0040FB6
:1044AC0020F818A020F81EC014BFB2468A4603F1AB
:1044BC00050812F0020F03F1060C03F1070E20F8A9
:1044CC0019B01FFA8EFE14BFB14689461FFA88F840
:1044DC0012F0010F1FFA8CFC14BF32460A4620F86A
:1044EC0018A020F81C9020F81E200137B5F804E025
:1044FC00BFB203F10802BE4592B29ED803F1090285
:10450C000A3392B29BB252005B0001994FF4004601
:10451C0086524908C65200221423C4F80425304E92
:10452C00C4F80C25C4F80835C4F81425C4F81025B3
:10453C00C4F82005C4F82415C4F82825C4F82C2583
:10454C00EB7931681B01CE18C95C737803F01F033B
:10455C0043EA41130121C4F86035C4F80015C4F8CE
:10456C001021A160D4F81031002BFBD000234FF0A8
:10457C00FF32C4F81031C4F80035C4F8602500F0DF
:10458C004FFAFFF72FFE286107B0BDE8F08FD4F883
:10459C006435002BBFF6BFAED4F86835002BBFF6E0
:1045AC00BAAED4F86C35002BBFF6B5AE36E7D4F8FE
:1045BC006435002BBFF6A6AED4F86835002BBFF6D9
:1045CC00A1AED4F86C35002BBFF69CAE26E7704735
:1045DC000423022299E700BFD4580D00C8580D00DF
:1045EC00D8E30320F0ED00E0001000E00D80FFFFA9
:1045FC000680FFFF43888B42F0B545D9057AC2F39C
:10460C000743C2F30724D6B245B16B436C436E43E8
:10461C00C3F30723C4F30724C6F3072690F806C098
:10462C00C768BCF1060F0CBF042503256943BCF118
:10463C00080F07EB010524D84FF0010E0EFA0CFE03
:10464C001EF4D27F0CD11EF0400F0DD11EF0100FB6
:10465C0017D0FF2B08BFFE237B546E70AC70F0BDDF
:10466C007C546B70AE70F0BD7B546C70AE70037A82
:10467C00120E0BB9D2B202E05A43C2F30722EA700F
:10468C00F0BD7B546C70AE70F0BD42EA012242EA80
:10469C000040704708B500F017F800F015F8014B12
:1046AC00186008BDD8E3032008B5024B1B689B6853
:1046BC00019308BD6802030008B5024B1B68DB6858
:1046CC00019308BD6802030008B5024B1B681B6808
:1046DC00019308BD2C02030008B5024B1B689B68B4
:1046EC00019308BD2C02030008B5024B1B68DB6864
:1046FC00019308BD2C02030008B5024B1B681B6913
:10470C00019308BD2C02030008B5024B1B68DB6942
:10471C00019308BD3002030008B5024B1B681B6AED
:10472C00019308BD3002030008B5024B1B685B689F
:10473C00019308BD1802030008B5024B1B68DB6827
:10474C00019308BD1802030008B5024B1B681B69D6
:10475C00019308BD1802030008B5024B1B685B6986
:10476C00019308BD1802030008B5024B1B689B6837
:10477C00019308BD4802030008B5024B1B681B6976
:10478C00019308BD4802030008B5024B1B685B6926
:10479C00019308BD4802030008B5024B1B685B6C13
:1047AC00019308BD4802030008B5024B1B689B6CC3
:1047BC00019308BD4802030008B5024B1B685B69F6
:1047CC00019308BD6402030008B5024B1B681B680B
:1047DC00019308BD3C02030008B5024B1B68DB6863
:1047EC00019308BD3C02030008B5024B1B681B6912
:1047FC00019308BD3C02030008B5024B1B685B69C2
:10480C00019308BD3C02030008B5024B1B689B6971
:10481C00019308BD3C02030008B5024B1B68DB6921
:10482C00019308BD3C02030008B5024B1B681B6AD0
:10483C00019308BD3C02030008B5024B1B689B6A40
:10484C00019308BD3C02030008B5024B1B681B6AB0
:10485C00019308BD2802030008B5024B1B685B6A74
:10486C00019308BD2802030008B5024B1B689B6A24
:10487C00019308BD2802030008B5024B1B68DB6AD4
:10488C00019308BD2802030008B5024B1B681B6B83
:10489C00019308BD2802030008B5024B1B685B6B33
:1048AC00019308BD2802030008B5024B1B681B6C62
:1048BC00019308BD2802030008B5024B1B681B6856
:1048CC00019308BD4C02030008B5024B1B681B6921
:1048DC00019308BD4C02030008B5024B1B685B69D1
:1048EC00019308BD4C02030008B5024B1B689B6981
:1048FC00019308BD4C02030008B5024B1B68DB6931
:10490C00019308BD4C02030008B5024B1B681B6ADF
:10491C00019308BD4C02030008B5024B1B685B6891
:10492C00019308BD2002030008B5024B1B685B69AC
:10493C00019308BD2002030008B5034B1B68D3F894
:10494C008830019308BD00002002030008B5034B1A
:10495C001B68D3F89430019308BD000020020300BB
:10496C0008B5024B1B685B68019308BD400203004D
:10497C0008B5024B1B689B68019308BD40020300FD
:10498C0008B5024B1B68DB68019308BD40020300AD
:10499C0008B5024B1B681B69019308BD400203005C
:1049AC0008B5024B1B685B69019308BD400203000C
:1049BC0008B5024B1B689B69019308BD40020300BC
:1049CC0008B5024B1B68DB69019308BD400203006C
:1049DC0008B5024B1B681B6A019308BD400203001B
:1049EC0008B5024B1B681B6B019308BD400203000A
:1049FC0008B5024B1B685B6B019308BD40020300BA
:104A0C0008B5024B1B68DB6B019308BD4402030025
:104A1C0008B5024B1B681B68019308BD1C02030000
:104A2C0008B5024B1B685B68019308BD1C020300B0
:104A3C00002211464068FFF7CBBF002211464068A8
:104A4C00FFF7D6BF00224068FFF7CABF002281F0F3
:104A5C0001014068FFF7B4BF00231A4619464068AD
:104A6C00FFF7A6BF00231A4619464068FFF798BF08
:104A7C00002211464068FFF78BBF002211464068A8
:104A8C00FFF776BF002202214068FFF779BF0023B1
:104A9C001A464068FFF764BF024B03225A60024A71
:104AAC001A607047DCE30320F0580D0010B5044683
:104ABC0001700846FFF728FE00236360204610BDF6
:104ACC000078FFF729BE000010B5094C00204FF606
:104ADC00FF732060A080A07120816381FFF71CFF11
:104AEC002046044A0449BDE8104000F021BD00BF37
:104AFC00E4E30320A8E30320AF400D0010B5044607
:104B0C00006808B1FFF750FE204610BD10B5064CEA
:104B1C00002320462360FFF73FFE2046034A04494A
:104B2C00BDE8104000F004BDF0E30320A8E303202F
:104B3C00094B0D00F8B506460D468F180024BD42F2
:104B4C000CD0336815F8011B9B6830469847002839
:104B5C0001DB0444F3E7002C08BF04462046F8BDF3
:104B6C0070B505460C46084649B100F095FE2B6819
:104B7C00024621462846DB68BDE87040184770BDE8
:104B8C0003689B68184730B58BB00B4600218DF835
:104B9C002410012A98BF0A220DF12304B3FBF2F56D
:104BAC0005FB123303F0FF03092B94BF303337336B
:104BBC00DBB2214604F801392B46002DEED1FFF76C
:104BCC00CFFF0BB030BD0000014B024A1A6070479A
:104BDC00F4E303208F590D00024B1A68024B1A6044
:104BEC00704700BF40E30320F8E303200021FFF7E8
:104BFC009BBE10B58368044613B103220146984747
:104C0C00204610BD10B50446FFF7F3FF204610BD3B
:104C1C000348044A04490023836000F089BC00BFA8
:104C2C00FCE30320A8E30320114C0D0008B50C4B4A
:104C3C0033B100F053F903681B699847002809DC6D
:104C4C00084B63B100F0CCF903681B699847002846
:104C5C0003DC08BDAFF30080F2E7AFF3008008BDC2
:104C6C00000000000000000008B5FFF7DFFFFFF7B1
:104C7C0073FD014B186008BD30E703200248034A5E
:104C8C000349121A00F0CCBD00F4032004F40320F5
:104C9C00105C0D0007B5002300931A466FF07701E6
:104CAC00FFF754FE03B05DF804FB000007B5438822
:104CBC000A2B08D0502B09D1094B1B683BB103B010
:104CCC005DF804EB1847FFF7E5FF06E000230093BF
:104CDC001A466FF07701FFF739FE03B05DF804FB5D
:104CEC000CE4032038B5104C104D2368AB42104B2C
:104CFC000CBF012200221A7002D0FFF7BFFF256003
:104D0C00FFF712FD044600F09FFD0A4B13B120463D
:104D1C00AFF3008000210748FFF772FE0021064820
:104D2C00BDE83840FFF708BE00F403201E1C279A8C
:104D3C0010E4032000000000B94C0D00704710B5C2
:104D4C001821044600F002FC204610BDF0B5037D8E
:104D5C00062B8DB00E4600F104074FF0000402D074
:104D6C0000F1080518E00CAD394605F8304D2F233D
:104D7C002A460A20FFF720FD284600F08DFD3368F7
:104D8C000246DB682946304698470FE024B12E21B5
:104D9C003046FFF7F5FE044415F8011D0A22304693
:104DAC00FFF7F1FEBD420444F0D120460DB0F0BD3A
:104DBC0010B5054B0446112240F8043B002100F0CD
:104DCC003AFD204610BD00BF305A0D000346074A7D
:104DDC0010B543F8042B01F1100251F8044B43F8C1
:104DEC00044B9142F9D10A781A7010BD305A0D005B
:104DFC0010B59DF8084044EA032343EA024242EA14
:104E0C00016104234160037510BD37B50D788B78B3
:104E1C004A78C97800912946FFF7EAFF03B030BD04
:104E2C0041747047704708B50021007CFFF75CFDAA
:104E3C0030EA200028BF4FF0FF3008BD08B5012133
:104E4C00007CFFF751FD30EA200028BF4FF0FF3007
:104E5C0008BD08B5007CFFF73FFD20EAE07008BDF7
:104E6C0008B5007CFFF730FD20EAE07008BD007C3F
:104E7C00FFF74ABD10B51421044600F067FB20462D
:104E8C0010BD38B50446007C0D46FFF725FD002803
:104E9C0001DC607C28B12946207CFFF72DFD20EA3F
:104EAC00E07038BD10B50446002363604FF47A738C
:104EBC00A360054B236001230846217463741146DB
:104ECC00FFF7FAFC204610BD445A0D0010B5142211
:104EDC000446002100F0AFFC204610BD30B50E4D4D
:104EEC0087B001A8FFF7F2FF296811F0010410D177
:104EFC002846FFF7CEF860B101AA21460748FFF714
:104F0C00D1FF2846FFF7CAF8054A0649034800F0C6
:104F1C000FFB024807B030BD14E4032018E4032053
:104F2C00A8E30320314E0D0070474174704708B55B
:104F3C00007CFFF781FC20EAE07008BD08B5007C1E
:104F4C00FFF752FC20EAE07008BD08B5007CFFF7C3
:104F5C005BFC30EA200028BF4FF0FF3008BD08B5DD
:104F6C00007CFFF749FC30EA200028BF4FF0FF30EF
:104F7C0008BD007CFFF750BC10B51421044600F0AE
:104F8C00E5FA204610BD70B5457C04460E4625B9A1
:104F9C00007CFFF751FC002805DD3146207CBDE884
:104FAC007040FFF719BC284670BD000010B50446D0
:104FBC0008461146002262604FF47A72A260054ADC
:104FCC0022600122207462741A46FFF7FDFB204612
:104FDC0010BD00BF745A0D00007CFFF725BC00000B
:104FEC0038B50C4D296811F0010411D12846FFF792
:104FFC0050F868B1084A094B09482146FFF7D6FF1B
:10500C002846FFF74BF8074A0749054800F090FA85
:10501C00034838BDC4E40320C8E4032040E4032063
:10502C002CE40320A8E30320354F0D007047F8B59E
:10503C00064615460C468F18BC4206D0336814F849
:10504C00011B9B6830469847F6E72846F8BD0022BE
:10505C00007CFFF7F9BB0021007CFFF7FDBB0021B2
:10506C00007CFFF701BC0021007CFFF705BC002190
:10507C00007CFFF709BC10B51421044600F066FA59
:10508C00204610BD10B50446002363604FF47A73BC
:10509C00A360044B2174084623601146FFF704FCFF
:1050AC00204610BDA45A0D000021007CFFF7F4BB74
:1050BC00002211464068FFF78BBC00221146406865
:1050CC00FFF796BC00224068FFF78ABC002281F0F3
:1050DC0001014068FFF774BC00231A4601214068A7
:1050EC00FFF766BC00231A4619464068FFF758BC08
:1050FC00002211464068FFF74BBC00221146406865
:10510C00FFF736BC002202214068FFF739BC0023B0
:10511C001A464068FFF724BC38B5054688B10468C8
:10512C004CB1A3681BB1032221462046984710219D
:10513C00204600F00BFA28461421BDE8384000F058
:10514C0005BA38BD10B103685B681847704710B5D5
:10515C0003680446BBB15868FFF706FB78B92368AF
:10516C005A7C12B95868FFF707FB23685868FFF799
:10517C000BFB20680023236028B1FFF7CDFF2068CC
:10518C0008B1FFF7C9FF204610BD38B50446D0F86A
:10519C00C40108B1FEF77BFFD4F8C00108B1FFF7DA
:1051AC0003FBD4F8BC5135B12846FFF7D0FF0421DE
:1051BC00284600F0CBF9206808B1FFF7C3FF204662
:1051CC0038BD000010B5044B044640F8083BFFF70F
:1051DC00DCFF204610BD00BFCC5A0D0038B50E4C7C
:1051EC000E4B23600025022304F5E4706360A56078
:1051FC00C4F8C451C4F8C851FFF7CEFA084BC4F830
:10520C00CC5184F8D05123602046064A0649BDE8AB
:10521C00384000F08DB900BF4CE50320345B0D0025
:10522C00CC5A0D00A8E30320D1510D0000221146E9
:10523C004068FFF7ADBB002211464068FFF7C8BBC2
:10524C00002211464068FFF7D3BB00224068FFF7ED
:10525C00C7BB002281F001014068FFF7B1BB0023FE
:10526C001A4619464068FFF7A3BB00231A46194695
:10527C004068FFF795BB002211464068FFF778BBEA
:10528C00002202214068FFF77BBB00231A464068CE
:10529C00FFF766BB024B04225A60024A1A60704741
:1052AC0020E70320005B0D0000231A464068FFF73F
:1052BC0057BB002202214068FFF762BB0022114657
:1052CC004068FFF755BB002211464068FFF760BBF2
:1052DC0000231A4619464068FFF762BB00231A46A2
:1052EC0019464068FFF764BB002281F00101406859
:1052FC00FFF766BB00224068FFF772BB0022114625
:10530C004068FFF775BB002211464068FFF760BB91
:10531C002DE9F043002495B016460D460746FFF7DD
:10532C0047FD214620220CA8009400F084FA40236B
:10533C000C9321466B460CAA3046FFF7BDF9044688
:10534C00002844D1024601216868FFF721FB0221A5
:10535C00804622466868FFF71BFB009E814621466B
:10536C00002E34D0002932D17368022B02D00A2BC4
:10537C0009D02AE0B8F1000F27D071693846043102
:10538C00FFF743FD20E0B9F1000F1ED07469112224
:10539C0001A800F050FA06238DF8143001AD04F189
:1053AC0008031834186859682A4603C20833A34204
:1053BC001546F7D101A906A807ADFFF707FD0FCDDC
:1053CC003C1D0FC42B6823700121F669C8E70098B7
:1053DC00FFF76AF9384615B0BDE8F083024B034A73
:1053EC001A6000225A60704728E70320345B0D00D6
:1053FC0070B5184E316811F0010504460AD13046DB
:10540C00FEF747FE30B129461348FFF74FFB3046F5
:10541C00FEF744FE1048FFF753FB28B1A4F10B0331
:10542C00022B01D8002070BD00F05CF8FFF73CFEA9
:10543C0008B1012CF6D9FFF7D3FDFFF7CDFD18B15C
:10544C00A4F10903012BEDD9232C8CBF00200120E2
:10545C0070BD00BFCCE30320D0E30320232838B574
:10546C0004460D460AD8FF2908D0FFF7C1FF28B122
:10547C0029462046BDE83840FFF72EB938BD38B56F
:10548C0004460D46FFF730F9FF2810D0062804D843
:10549C004D2323FA00F0C30709D42046FFF7A8FFD9
:1054AC0028B129462046BDE83840FFF725B938BD5C
:1054BC0070B5044614252A46094E002100F0BBF9AC
:1054CC00258020253146A5602561284600F040F84E
:1054DC0031466060284600F03BF8E060204670BD25
:1054EC00605B0D0030B50E4D296811F0010487B0DA
:1054FC0013D12846FEF7CDFD78B101A8FFF7D8FFF0
:10550C0001AA21460748FFF7BDFD2846FEF7C6FD58
:10551C00054A0649034800F00BF8024807B030BDB5
:10552C0034E7032038E70320A8E3032039500D00AB
:10553C000B460146184600F065B90000024B18688E
:10554C00BFF35F8F704700BF4CE70320FEF79DBD94
:10555C0000F000B810B5002814BF04460124204602
:10556C00FFF756FA20B9FFF7E9FF08B18047F6E7D5
:10557C0010BD0000184B1A68D1075CBF01221A60DD
:10558C00164B1A68D2075CBF01221A60144B1A68BA
:10559C00D0075CBF01221A60124B1A68D1075CBF9E
:1055AC0001221A60104B1A68D2075CBF01221A60E4
:1055BC000E4B1A68D0075CBF01221A600C4B1A689C
:1055CC00D1075CBF01221A600A4B1A68D2075CBF74
:1055DC0001221A60704700BF6CE7032068E70320C4
:1055EC0064E7032060E703205CE7032058E703200F
:1055FC0054E7032050E70320244B1A68D0075CBF04
:10560C0001221A60224B1A68D1075CBF01221A6072
:10561C00204B1A68D2075CBF01221A601E4B1A6815
:10562C00D0075CBF01221A601C4B1A68D1075CBF03
:10563C0001221A601A4B1A68D2075CBF01221A6049
:10564C00184B1A68D0075CBF01221A60164B1A68F7
:10565C00D1075CBF01221A60144B1A68D2075CBFD9
:10566C0001221A60124B1A68D0075CBF01221A6023
:10567C00104B1A68D1075CBF01221A600E4B1A68D6
:10568C00D2075CBF01221A60704700BF9CE7032061
:10569C0098E7032094E7032090E703208CE703208E
:1056AC0088E7032084E7032080E703207CE70320BE
:1056BC0078E7032074E7032070E70320244B1A6873
:1056CC00D0075CBF01221A60224B1A68D1075CBF5D
:1056DC0001221A60204B1A68D2075CBF01221A60A3
:1056EC001E4B1A68D0075CBF01221A601C4B1A684B
:1056FC00D1075CBF01221A601A4B1A68D2075CBF33
:10570C0001221A60184B1A68D0075CBF01221A607C
:10571C00164B1A68D1075CBF01221A60144B1A6829
:10572C00D2075CBF01221A60124B1A68D0075CBF0B
:10573C0001221A60104B1A68D1075CBF01221A6053
:10574C000E4B1A68D2075CBF01221A60704700BF6B
:10575C00CCE70320C8E70320C4E70320C0E70320FD
:10576C00BCE70320B8E70320B4E70320B0E703202D
:10577C00ACE70320A8E70320A4E70320A0E703205D
:10578C00184B1A68D1075CBF01221A60164B1A68B5
:10579C00D2075CBF01221A60144B1A68D0075CBF99
:1057AC0001221A60124B1A68D1075CBF01221A60E1
:1057BC00104B1A68D2075CBF01221A600E4B1A6894
:1057CC00D0075CBF01221A600C4B1A68D1075CBF72
:1057DC0001221A600A4B1A68D2075CBF01221A60B8
:1057EC00704700BFECE70320E8E70320E4E7032061
:1057FC00E0E70320DCE70320D8E70320D4E703200D
:10580C00D0E7032010B5054C13462CB10A460146CF
:10581C000220AFF3008010BD204610BD0000000038
:10582C0010B5431E0A44914204D011F8014B03F801
:10583C00014FF8E710BD02440346934202D003F82F
:10584C00011BFAE77047000038B5124B1C68A36BBC
:10585C000546D3B91820FFF7DBF843F20E33A063EB
:10586C0003804AF6CD33438041F2342383804EF2D9
:10587C006D63C3804DF6EC630381052343810B23D9
:10588C00838101220023C0E90423A36B00221D6144
:10589C005A6138BDA4E30320034613F8012B002AF8
:1058AC00FBD1181A013870471D400D0059400D00EE
:1058BC0085400D0089400D000000000000C0014033
:1058CC0000100240002002402C01000018000000D3
:1058DC00F40100002C01000050000000000000004A
:1058EC00000000009B4A0D00914A0D00874A0D00F4
:1058FC007D4A0D00714A0D00654A0D00594A0D0094
:10590C00514A0D00474A0D003D4A0D001D530D0034
:10591C00626175640053657269616C0053657269EC
:10592C00616C31007479706500706172616D006337
:10593C006D6400696400686E64007374726D006657
:10594C00696C74006C766C0061646448616E646CA4
:10595C0065720072656D6F766548616E646C657218
:10596C0000656E756D48616E646C657273004A53A8
:10597C004F4E53747265616D4C6F6748616E646C09
:10598C0065720061707000253031307520005D202B
:10599C00002564002C200028293A2000205B00639D
:1059AC006F6465203D200025690064657461696C35
:1059BC0073203D20000D0A0066006C6E00666E00C0
:1059CC00636F64650064657461696C006E6F6E650D
:1059DC0000747261636500696E666F007761726E48
:1059EC00006572726F720070616E696300616C6C3D
:1059FC00005A00252B3033643A2530327500255976
:105A0C002D256D2D25645425483A254D3A255325D1
:105A1C007A0061736374696D65000000000000001A
:105A2C0000000000594D0D00494D0D004B4D0D006F
:105A3C000000000000000000314E0D00814E0D00F2
:105A4C008F4E0D00414B0D006D4E0D00334E0D0071
:105A5C00494E0D007B4E0D005F4E0D002D4E0D007E
:105A6C000000000000000000354F0D00854F0D00B8
:105A7C00934F0D00414B0D00494F0D006B4F0D0026
:105A8C00574F0D007F4F0D00374F0D003B4F0D0052
:105A9C00000000000000000039500D0083500D0084
:105AAC005B500D003B500D0063500D006B500D0012
:105ABC0073500D007B500D00000000000000000032
:105ACC001B510D0011510D0007510D00FD500D0023
:105ADC00F1500D00E5500D00D9500D00D1500D00C6
:105AEC00C7500D00BD500D001D530D0000000000EF
:105AFC000000000097520D008D520D0083520D00D6
:105B0C0039520D0077520D006B520D005F520D0093
:105B1C0057520D004D520D0043520D001D530D00F8
:105B2C000000000000000000B5520D00BF520D0037
:105B3C00C9520D00D3520D00DD520D00E9520D007B
:105B4C00F5520D0001530D0009530D0013530D00B8
:105B5C001D530D00000000000000000000000000BC
:105B6C000000000000000000000000000000000029
:105B7C000000000000000000000000000000000019
:105B8C000000000000000000000000000000000009
:105B9C0000000000000000000000000000000000F9
:105BAC0000000000000000000000000000000000E9
:105BBC0000000000000000004300000091410D00B7
:105BCC00ED410D00A1460D00A54A0D00D54A0D0072
:105BDC00194B0D00D54B0D00E54B0D001D4C0D0068
:105BEC00E9510D00A1520D00E9530D0081550D0036
:105BFC0005560D00C9560D008D570D000000000014
:045C0C000000000094
:045C10000000000090
:105C14001E5A0D0000000000645B0D00845B0D0043
:105C2400A45B0D0000000000000000000000000064
:105C340000000000C45B0D00000000000000000034
:105C44000000000000000000000000000000000050
:105C54000000000000000000000000000000000040
:105C64000000000000000000000000000000000030
:085C74000000000044E30320DE
:105C7C00FFFFFFFF00000102030405060708090AE5
:105C8C000B0C0D0E0F101112131415161718191AE0
:085C9C001B1C1D1E1F20280027
:045CA40078563412E8
:04000003D000401CCD
:00000001FF
