:02000002D0002C
:1040000000400D00346E0D00000006000C0005019C
:084010000401E80500000000B6
:044018001C690D0012
:10401C0009480A49884208B505D0094A824202D0AB
:10402C00121A02F031FC0748074A0021121A02F05A
:10403C0036FC014808BD00BFC0E20320A46D0D0092
:10404C0028E3032028E30320F0E7032070B501F0F8
:10405C004BFE074C074BE41AA40800251E46A5424C
:10406C0004D056F8253098470135F8E770BD00BFED
:10407C00A06D0D00606D0D0000F04AB808B500F0A1
:10408C0015FBBDE8084001F0F1BD01F095BC01F055
:10409C0093BC0078B0FA80F040097047012303709C
:1040AC00704710B50446006808B101F085FC204645
:1040BC0010BD000070B5124800F059FE08B9002080
:1040CC0070BD0F4800F0B1FF0028F8D00D4C0E4D1C
:1040DC00261D15F8013B04F8013F01F00BFF1022DF
:1040EC00217801F052FDB442F3D101F003FF0749EE
:1040FC0001F041FD024800F0A1FF012070BD00BF9E
:10410C0065E30320C7E3032066E303205B6B0D002C
:10411C0070B50121032002F0ADF90021022002F05C
:10412C00A9F901F0E7FE4FF4165101F0D1FE01F0B0
:10413C00E1FE01F0D4FE0028F9D0854D296811F07C
:10414C0001040AD12846FFF7A4FF30B1214681486B
:10415C0001F07EFC2846FFF7A1FF7E4801F082FCAF
:10416C007D4800F091FC7D4800F0DFFF4FF47A7041
:10417C0001F03EFD022002F0A7F9012820D101F048
:10418C00B9FE774901F0F7FC02F0B2F901F0A0FAA0
:10419C0000240021FF22084601F0EBF9A1B20246EF
:1041AC006E4801F09BF96D4800F0F6FF0234642074
:1041BC0001F01EFD0C2CECD14FF4FA7001F018FD3F
:1041CC0002F096F9012001F073FA8F2800F0898033
:1041DC0001F090FE6349644D01F0CDFC01F08AFEC4
:1041EC00044602F085F9012001F062FA0A22014628
:1041FC00204601F0CAFC204601F0B1FC01F07AFE29
:10420C005A4901F0B8FC2E46FFF754FF00242870E1
:10421C0032221146002001F0ACF9A1B202464F48FF
:10422C0001F05CF902344D4800F0B6FF0C2CEFD1D4
:10423C004FF4FA7001F0DCFC002400213222084615
:10424C0001F097F9A1B20246444801F047F9023453
:10425C00424800F0A1FF0C2CEFD14FF4FA7001F0A2
:10426C00C7FC3378002BCFD03F4B414D00221A7046
:10427C00022402F03DF92B19204613F8021C0134DC
:10428C0001F01EFA062CF4D13A4D022402F030F95A
:10429C00204601F00DFA2B190134062C03F8020C00
:1042AC00F4D102F025F98F21012001F009FA01F077
:1042BC0021FE314901F05FFC00240022322110461E
:1042CC0001F057F9A1B20246244801F007F9023473
:1042DC00224800F061FF0C2CEFD14FF4FA7001F082
:1042EC0087FC244D022402F003F9204601F0E0F98A
:1042FC002B190134062C03F8020C1E4EF3D101F0DD
:10430C00F9FD1E4901F024FC002401F0F3FD315DA0
:10431C0005460A2201F039FC0134284601F01FFC45
:10432C00042CF2D101F0E6FD01F019FC002400226E
:10433C001146104601F01DF9A1B20246074801F0E2
:10434C00CDF80134054800F027FF0C2CEFD170BDDF
:10435C002CE3032030E3032065E303204CE303202C
:10436C0030690D0040690D00CCE3032057690D0046
:10437C00C8E3032061E303207B690D008F690D0006
:10438C00F8B5C14CC04DFFF795FE20700028F9D050
:10439C00BE4FBF4C3A7800232B7023789A4205D03D
:1043AC000121032002F077F80024E7E07A786378A3
:1043BC009A42F5D1BA78A3789A42F1D1FA78E37897
:1043CC009A42EDD101F096FDB24901F0D4FBFFF712
:1043DC0071FE0026287032221146002001F0C9F827
:1043EC00B1B20246AC4801F079F80236AA4800F0A6
:1043FC00D3FE0C2EEFD14FF4FA7001F0F9FB00262E
:10440C0000223221104601F0B4F8B1B20246A248A3
:10441C0001F064F80236A04800F0BEFE0C2EEFD17D
:10442C004FF4FA7001F0E4FB2B78002BCFD03878E6
:10443C002178954B002288421A70944A944B71D182
:10444C005078597888426DD190789978884269D1A2
:10445C00D278DB789A4265D101F04CFD8F4901F09E
:10446C008AFB01F047FD8E4901F085FBFFF722FE28
:10447C000024287032221146002001F07AF8A1B2F3
:10448C000246854801F02AF80234834800F084FE85
:10449C000C2CEFD14FF4FA7001F0AAFB002400228F
:1044AC001146322001F065F8A1B202467A4801F0BB
:1044BC0015F80234784800F06FFE0C2CEFD14FF455
:1044CC00FA7001F095FB2B78002BCFD001F012FD88
:1044DC00744901F050FB002400223221104601F0F7
:1044EC0048F8A1B202466C4800F0F8FF02346A4862
:1044FC0000F052FE0C2CEFD14FF4FA7001F078FB67
:10450C00002400221146104601F033F8A1B20246F5
:10451C00614800F0E3FF02345F4800F03DFE0C2CD4
:10452C00EFD13DE701F0E6FC5F4901F024FB0024EC
:10453C0000223221104601F01CF8A1B20246564866
:10454C0000F0CCFF0234544800F026FE0C2CEFD1C6
:10455C004FF4FA7001F04CFB002400221146104677
:10456C0001F007F8A1B202464B4800F0B7FF023445
:10457C00494800F011FE0C2CEFD111E70025E6B2F2
:10458C0000223146104600F0F4FFA9B20246424820
:10459C0000F0A4FF0135404800F0FEFD0C2DEFD1DA
:1045AC000520013401F024FB322CE7D140F2D66017
:1045BC0001F01EFB00253224AEB20022E1B21046FF
:1045CC0000F0D7FF31460246334800F087FF3248EF
:1045DC0000F0E2FD052001F00BFB013CEDD1224681
:1045EC002146204600F0C5FF314602462A4800F01D
:1045FC0075FF0135284800F0CFFD0C2DDBD121468D
:10460C00032001F048FF0025E6B200221146304697
:10461C0000F0AFFFA9B202461F4800F05FFF013562
:10462C001D4800F0B9FD0C2DEFD10220013401F032
:10463C00DFFA322CE7D10025E6B2002211463046D3
:10464C0000F097FFA9B20246134800F047FF01356E
:10465C00114800F0A1FD0C2DEFD1022001F0C8FA99
:10466C00013CE8D100221146104600F082FFA1B2B5
:10467C000246094800F032FF0134074800F08CFD77
:10468C000C2CEFD1F8BD00BFCCE30320C8E3032012
:10469C0061E30320A4690D004CE30320B9690D000C
:1046AC00D4690D00FA690D00076A0D002DE9F74376
:1046BC004F4E504A504D33782B7013684F4801338E
:1046CC00022B1360C8BF4E4B02AC1746C4BF00226E
:1046DC001A7024210223002204F8063D00F00DF983
:1046EC0000222621454800F008F92622482143489B
:1046FC0000F003F9224601A9404800F033FB0128E1
:10470C00044608D13D4800F090FC00286DD00023F1
:10471C003B603B4B1C703A4B1B783370002B5BD0CF
:10472C002C78002C58D101F0E5FB3649364F01F0BE
:10473C0022FA02AB1222A10003F8052D01F0FC01B4
:10474C00324A2E4800F09FFC28B901F0D3FB3049C7
:10475C0001F011FA49E02D482101002303EB010E71
:10476C00002200EB030919F8028007EB020C01325E
:10477C00042A0CF80E80DFF89080F4D10433102B4F
:10478C00ECD10134042CD4D11C4800F057FC01F0BE
:10479C00B1FB204901F0EFF90024002701F0AAFB3E
:1047AC0008EB07031022195D01F0EFF9013701F056
:1047BC00A1FB194901F0CCF9042FEFD101F09AFBC0
:1047CC00043401F0CCF9402CE7D101F093FB1149F2
:1047DC0001F0D1F9FFF7D4FD337833B92B7823B13D
:1047EC0001F088FB0D4901F0C6F903B0BDE8F08378
:1047FC00B8E30320B4E3032060E3032065E3032064
:10480C00CDE303201B6A0D0073E3032038E3032080
:10481C00256A0D003A6A0D00396B0D00556A0D00C2
:10482C0038B5134C134D00F0C3FE00232360A38056
:10483C00A37123814FF6FF736381032001F038F8D5
:10484C0020460D4C0D492A4601F0A6FE02230622F5
:10485C000C21204600F08EFC2A460949204601F026
:10486C009BFE052204210748BDE8384000F00CB837
:10487C00BCE3032028E303204CE30320AF400D00EE
:10488C00E1500D0065E3032038B50446084621735A
:10489C000121154601F0EEFD207B012101F0FBFD0D
:1048AC0028466573012101F0E5FD607B002101F0D4
:1048BC00F2FD204638BD000038B5094D296811F0CD
:1048CC0001040AD12846FFF7E4FB30B12146054824
:1048DC0001F0BEF82846FFF7E1FB024838BD00BFE7
:1048EC002CE3032030E3032010B50446FFF7E4FF6C
:1048FC002146BDE8104001F0C6B870B504460E461E
:10490C00007B0021154601F0C6FD06F07E00FFF786
:10491C00EBFF2846FFF7E8FF207B0121BDE8704044
:10492C0001F0B9BDF8B50D4606460021007B1F46C7
:10493C00144601F0B0FD05F07E00FFF7D5FF013CF9
:10494C007D1E3C44A54204D015F8010FFFF7CCFFA7
:10495C00F8E7307B0121BDE8F84001F09CBD38B58B
:10496C0005460C46007B002101F095FD04F07E000D
:10497C0040F08000FFF7B8FF0020FFF7B5FF0121E2
:10498C000446287B01F087FD204638BD70B50546EE
:10499C000E461446FFF7E3FF40EA04023146284670
:1049AC00D2B2BDE87040FFF7A8BF70B505460E4601
:1049BC001446FFF7D4FF20EA040231462846D2B24F
:1049CC00BDE87040FFF799BFF8B5044615460F4691
:1049DC00002202211E46FFF790FF04220A212046E6
:1049EC00FFF78BFF802214212046FFF7CFFF2A46CA
:1049FC003B4612212046FFF795FF03220221204659
:104A0C00FFF77BFF41F288350A212046FFF7A7FF0D
:104A1C00430705D4013DADB2002DF5D10420F8BDFE
:104A2C00002220460221FFF768FF44212046FFF7B1
:104A3C0096FF422130702046FFF791FF70700120E5
:104A4C00F8BD10B50F2202210446FFF756FF3220A5
:104A5C0001F0CEF802212046FFF781FFC306F9D4FE
:104A6C0010BD10B528210446FFF779FF00F00303B1
:104A7C00032B08D040F00302D2B220462821BDE817
:104A8C001040FFF73ABF10BD10B50446407B01F053
:104A9C001BFD38B9607B012101F0FDFC322001F0D7
:104AAC00A7F802E02046FFF7CCFF204680225421D5
:104ABC00FFF723FF2046A9225621FFF71EFF2046B1
:104ACC0003225821FFF719FF2046E8225A21FFF74D
:104ADC0014FF204640222A21FFF70FFF20463D22DB
:104AEC002221FFF70AFF2046BDE81040FFF7B9BFAF
:104AFC002DE9F84F80461F469DF828901546002A50
:104B0C003FD001F07E0141F08006007B002101F0D6
:104B1C00C2FC3046FFF7E8FE013DEDB24FF0000B52
:104B2C004FF0010A5FFA8BF4A5421FD9B4B9B9F161
:104B3C00000F13D04B46072B06D80AFA03F0044398
:104B4C000133E4B2DBB2F6E73046FFF7CDFE3B783B
:104B5C00204023EA04031843387004E03046FFF782
:104B6C00C3FE07F80B000BF1010BDBE70020FFF78E
:104B7C00BBFE7855012198F80C00BDE8F84F01F008
:104B8C008ABCBDE8F88F2DE9F04F87B00446DDF8FC
:104B9C004C8002928B46119F129D9DF850A0B8F14B
:104BAC00000F02D098F8006000E046460022022177
:104BBC0020460393FFF7A1FE7F2208212046FFF732
:104BCC009CFE06EB0A16802214212046FFF7DEFE1F
:104BDC00F6B2039B9DF8402012212046FFF7A2FE5F
:104BEC0032461A212046FFF788FE5A4602212046FB
:104BFC00FFF783FEBBF10C0F04D180221A21204653
:104C0C00FFF7C4FE4FF4FA6608212046FFF7A7FE13
:104C1C00029B184204D1C20752D4013EF4D14FE09A
:104C2C000C212046FFF79BFE10F0130F064649D1CE
:104C3C00DFB1D5B114212046FFF791FE2B788342CA
:104C4C00024641D328703B4612212046CDF800A0E5
:104C5C00FFF74EFF18212046FFF781FE00F00709F1
:104C6C00B8F1000F01D088F8009033072ED47FB331
:104C7C0075B39DF854305BB32A78012A04D1B9F18D
:104C8C00040F27D1092026E024D9B9F1000F21D136
:104C9C00023A05ABD2B239462046FFF795FE012801
:104CAC0019D12B781F449DF8143017F8022C9A4216
:104CBC0010D117F8012C9DF815309A420AD10AE050
:104CCC00042008E0022006E0052004E0032002E0B6
:104CDC00012000E0082007B0BDE8F08F10B586B0C9
:104CEC009DF82C4005949DF828400494099C03944D
:104CFC00089C8DE81C000B4630220C21FFF743FF6B
:104D0C0006B010BD70B588B006461C468DF817105D
:104D1C00154612B31B78012B1FD980221C21FFF7DB
:104D2C0044FE07238DF81F300023039302930DF1EB
:104D3C001F03019300942B4601220DF117013046FD
:104D4C00FFF7CCFF01280BD12078022807D19DF862
:104D5C001F30002B08BF012002E0052000E00220DC
:104D6C0008B070BD13460A462621FFF7CBBF07B526
:104D7C0002AA022302F8053D01A9FFF7F3FF01285F
:104D8C0002D0C31E5842584103B05DF804FB2DE914
:104D9C00F04F502A8BB083468A46174600F2F580B6
:104DAC0080221C21FFF701FE0125022D10D0032DBE
:104DBC001BD0012D40F0EB8093238DF81C30D7B124
:104DCC009AF80030042B94BF00230123002616E030
:104DDC006FF06A038DF81C307FB19AF80030072B06
:104DEC0094BF00230123032609E097238DF81C3080
:104DFC000626002303E03E4600E003263B46A7EBD5
:104E0C00C60464B224EAE4742BB188228DF81E2007
:104E1C004FF0030801E04FF00208E1B211F0070275
:104E2C0018BF012202EBE40212F0FF0206D1002BA4
:104E3C0000F08B8001F1080464B286E0002B14BFF3
:104E4C0003200420824228BF0246002008EB000EFB
:104E5C000DF1280C5CFA8EFE06EB000CD4440130EC
:104E6C009CF801C00EF80CCC5FFA80FE9645EDD391
:104E7C00DDE7012840F08D801F2C00F38C8020246E
:104E8C004FF070039DF81E208DF81D309DF81F30DB
:104E9C0053409DF820205A409DF8213053408DF806
:104EAC00223007220DF1230307A95846FFF78CFD8A
:104EBC00012840F0B7804FF000038DF81A3003231F
:104ECC008DF81B3009230DF1220904930DF12808EC
:104EDC001A2118F80E3D059303EB0312D2B2584673
:104EEC00FFF70BFD00230393059B02930DF11B03AE
:104EFC00CDF804800093049A4B4607A95846FFF757
:104F0C00EDFE03288046B4D11C215846FFF727FD3F
:104F1C0081063ED410F01F0008BF2020A04236DDD1
:104F2C0044B2013800F0070310F0070018BF01204D
:104F3C0000EBE4000AAA01301044012202FA03F348
:104F4C0010F80C2C134300F80C3C1F2C98DCE310CD
:104F5C0004F007080233DBB25FFA88F28DF81A20EE
:104F6C00B8F1000F0CBF984603F1010802EB0312D5
:104F7C008DF81D205FFA88F2049207AA02EB030950
:104F8C00C3F109038DF81B30A0E707204AE0062087
:104F9C0048E0404646E09DF81E30882B3FD0022268
:104FAC0004240023D0180DF1280EF1185EFA80F0BD
:104FBC00514410F80C0C48700133D9B28C42F1D822
:104FCC009DF81B30032B26D19DF81A301BBB0DF11D
:104FDC001E03012249465846FFF7F6FC012821D151
:104FEC009DF81E2099F801309A4216D19DF81F2089
:104FFC0099F802309A4210D199F800305A0702D52C
:10500C000135EDB2D1E605EB450501358AF80B30DB
:10501C008AF8005006E0022004E0082002E0032297
:10502C001446BEE70BB0BDE8F08F08B50022014670
:10503C00FFF7ADFE431E5842584108BD70B586B00F
:10504C0050238DF8143000250DF11603022205A90A
:10505C0006468DF81550FFF7B7FC012804460FD112
:10506C0003950295019500952B46042205A930461F
:10507C00FFF734FE042803D0012808BF022000E00B
:10508C00204606B070BD7FB506461D461446C2B11B
:10509C001B78112B15D9302313705170931C21469A
:1050AC000222FFF791FC01280CD1002303900293FC
:1050BC00019300952346042221463046FFF70EFE4D
:1050CC0000E0052004B070BD00F072BA00F0D8BA50
:1050DC0000F0CEBA10B50446C06808B100F06CFC04
:1050EC0023781BB10021E07901F0C4F9204610BDF2
:1050FC0038B50446C0680D4608B100F05DFCA379D4
:10510C00062B0CBF0420032010FB05F080B2A080FE
:10511C0000F04AFCE06028B1A288002101F0BFFB3E
:10512C00658038BDA080608038BD10B50446012173
:10513C00C07901F09FF90021E07901F0ACF901236D
:10514C00237010BD38B5037805460C461BB1002101
:10515C00C07901F08FF92B78EC7153B1A4B22046D1
:10516C00012101F087F920460021BDE8384001F00B
:10517C0092B938BD70B5002504461646837105708A
:10518C000572C5600561FFF7B3FF20463146FFF796
:10519C00D9FF204670BD0000C368002B00F08B8146
:1051AC002DE9F04F8379023BDBB2042B9CBFC44A40
:1051BC0052F8234087B0054688BF3224FFF786FF9C
:1051CC002B69C01AA042F9D3BE4AAB8807CA06ACF9
:1051DC0004E90700039C1B01D4F800250433019358
:1051EC0022B9D4F86035002BC0F25581049CD4F858
:1051FC00003523B9D4F86035002BC0F23C81059CF6
:10520C00D4F800351BB9D4F86035002B6EDBAE4BEF
:10521C00EA791E68AD4CAE49E0681201B31840F053
:10522C0080705B78B75CE0600A6803F01F0343EAA8
:10523C00471301273A430A600C46A888D5F80C900E
:10524C00D4F804A09F408846002844D0CC460022C5
:10525C004FF0A0411CF801EB0820802663689B1AD4
:10526C00462BFBD9D8F80420D1F808351EEA060FD6
:10527C0043EA0703C1F808352FD063689B1A282B23
:10528C00FBD9D1F80C35013843EA07034FEA56062F
:10529C00C1F80C35E2D1C9EB0C03A8889BB298423B
:1052AC00D8D84FF4307303FB00F063689B1A462B7D
:1052BC00FBD9D8F80430CAEB030A8245C0F0D5807C
:1052CC004FF49670FFF704FFA888D5F80C90D4F82B
:1052DC0004A00028BAD10246E7E763689B1A112B99
:1052EC00CFD863689B1A112BF7D9CAE7D4F8643569
:1052FC00002B8CDAD4F86835002B88DAD4F86C35AE
:10530C00002B84DA019800F04FFB00283FF47FAFAC
:10531C00AB88002B00F0D08000273B466D4E6E49C9
:10532C0000E01346EA68D25D03F1010E12F0800F23
:10533C0014BFB04688461FFA8EFE12F0400F14BF01
:10534C00B146894612F0200F20F8138018BFB246E0
:10535C0020F81E9008BF8A4603F1020812F0100FC5
:10536C0003F1030E14BFB4468C461FFA88F812F0F2
:10537C00080F1FFA8EFE03F104091FFA89F914BFF6
:10538C00B3468B4612F0040F20F818A020F81EC06C
:10539C0014BFB2468A4603F1050812F0020F03F15E
:1053AC00060C03F1070E20F819B01FFA8EFE14BF7D
:1053BC00B14689461FFA88F812F0010F1FFA8CFCCF
:1053CC0014BF32460A4620F818A020F81C9020F88A
:1053DC001E200137B5F804E0BFB203F10802BE4548
:1053EC0092B29ED803F109020A3392B29BB25200D8
:1053FC005B0001994FF4004686524908C6520022C0
:10540C001423C4F80425304EC4F80C25C4F8083510
:10541C00C4F81425C4F81025C4F82005C4F82415C4
:10542C00C4F82825C4F82C25EB7931681B01CE185B
:10543C00C95C737803F01F0343EA41130121C4F8DC
:10544C006035C4F80015C4F81021A160D4F81031EF
:10545C00002BFBD000234FF0FF32C4F81031C4F8FE
:10546C000035C4F8602500F0A7FAFFF72FFE28617D
:10547C0007B0BDE8F08FD4F86435002BBFF6BFAE93
:10548C00D4F86835002BBFF6BAAED4F86C35002BC7
:10549C00BFF6B5AE36E7D4F86435002BBFF6A6AE32
:1054AC00D4F86835002BBFF6A1AED4F86C35002BC0
:1054BC00BFF69CAE26E770470423022299E700BF93
:1054CC006C6A0D00606A0D00D0E30320F0ED00E083
:1054DC00001000E00D80FFFF0680FFFF43888B4229
:1054EC00F0B545D9057AC2F30743C2F30724D6B207
:1054FC0045B16B436C436E43C3F30723C4F30724DA
:10550C00C6F3072690F806C0C768BCF1060F0CBF9F
:10551C00042503256943BCF1080F07EB010524D8CA
:10552C004FF0010E0EFA0CFE1EF4D27F0CD11EF0C1
:10553C00400F0DD11EF0100F17D0FF2B08BFFE230C
:10554C007B546E70AC70F0BD7C546B70AE70F0BD63
:10555C007B546C70AE70037A120E0BB9D2B202E0AF
:10556C005A43C2F30722EA70F0BD7B546C70AE70E4
:10557C00F0BD42EA012242EA0040704708B500F053
:10558C0017F800F015F8014B186008BDD0E30320A4
:10559C0008B5024B1B689B68019308BD68020300A9
:1055AC0008B5024B1B68DB68019308BD6802030059
:1055BC0008B5024B1B681B68019308BD2C02030045
:1055CC0008B5024B1B689B68019308BD2C020300B5
:1055DC0008B5024B1B68DB68019308BD2C02030065
:1055EC0008B5024B1B681B69019308BD2C02030014
:1055FC0008B5024B1B685B69019308BD2C020300C4
:10560C0008B5024B1B681B68019308BD30020300F0
:10561C0008B5024B1B685B69019308BD300203009F
:10562C0008B5024B1B68DB69019308BD300203000F
:10563C0008B5024B1B681B6A019308BD30020300BE
:10564C0008B5024B1B681B6C019308BD30020300AC
:10565C0008B5024B1B685B6C019308BD300203005C
:10566C0008B5024B1B685B68019308BD1802030068
:10567C0008B5024B1B68DB68019308BD18020300D8
:10568C0008B5024B1B681B69019308BD1802030087
:10569C0008B5024B1B685B69019308BD1802030037
:1056AC0008B5024B1B689B6A019308BD18020300E6
:1056BC0008B5024B1B68DB6A019308BD1802030096
:1056CC0008B5024B1B681B6B019308BD1802030045
:1056DC0008B5024B1B68DB6C019308BD1802030074
:1056EC0008B5024B1B689B68019308BD4802030078
:1056FC0008B5024B1B681B69019308BD48020300E7
:10570C0008B5024B1B685B69019308BD4802030096
:10571C0008B5024B1B685B6C019308BD4802030083
:10572C0008B5024B1B689B6C019308BD4802030033
:10573C0008B5024B1B685B69019308BD640203004A
:10574C0008B5024B1B681B68019308BD3C020300A3
:10575C0008B5024B1B68DB68019308BD3C020300D3
:10576C0008B5024B1B681B69019308BD3C02030082
:10577C0008B5024B1B685B69019308BD3C02030032
:10578C0008B5024B1B689B69019308BD3C020300E2
:10579C0008B5024B1B68DB69019308BD3C02030092
:1057AC0008B5024B1B681B6A019308BD3C02030041
:1057BC0008B5024B1B689B6A019308BD3C020300B1
:1057CC0008B5024B1B681B6A019308BD2802030035
:1057DC0008B5024B1B685B6A019308BD28020300E5
:1057EC0008B5024B1B689B6A019308BD2802030095
:1057FC0008B5024B1B68DB6A019308BD2802030045
:10580C0008B5024B1B681B6B019308BD28020300F3
:10581C0008B5024B1B685B6B019308BD28020300A3
:10582C0008B5024B1B681B6C019308BD28020300D2
:10583C0008B5024B1B681B68019308BD4C020300A2
:10584C0008B5024B1B685B68019308BD4C02030052
:10585C0008B5024B1B681B69019308BD4C02030081
:10586C0008B5024B1B685B69019308BD4C02030031
:10587C0008B5024B1B689B69019308BD4C020300E1
:10588C0008B5024B1B68DB69019308BD4C02030091
:10589C0008B5024B1B681B6A019308BD4C02030040
:1058AC0008B5024B1B685B6A019308BD4C020300F0
:1058BC0008B5024B1B685B68019308BD200203000E
:1058CC0008B5024B1B685B69019308BD20020300FD
:1058DC0008B5034B1B68D3F88830019308BD000052
:1058EC002002030008B5034B1B68D3F894300193D6
:1058FC0008BD00002002030008B5024B1B685B6862
:10590C00019308BD4002030008B5024B1B689B685D
:10591C00019308BD4002030008B5024B1B68DB680D
:10592C00019308BD4002030008B5024B1B681B69BC
:10593C00019308BD4002030008B5024B1B685B696C
:10594C00019308BD4002030008B5024B1B689B691C
:10595C00019308BD4002030008B5024B1B68DB69CC
:10596C00019308BD4002030008B5024B1B681B6A7B
:10597C00019308BD4002030008B5024B1B681B6B6A
:10598C00019308BD4002030008B5024B1B685B6B1A
:10599C00019308BD4002030008B5024B1B68DB6B8A
:1059AC00019308BD4402030008B5024B1B681B6839
:1059BC00019308BD1C02030008B5024B1B685B6811
:1059CC00019308BD1C020300002211464068FFF73A
:1059DC00CBBF002211464068FFF7D6BF00224068BB
:1059EC00FFF7CABF002281F001014068FFF7B4BF86
:1059FC0000231A4619464068FFF7A6BF00231A4633
:105A0C0019464068FFF798BF002211464068FFF71F
:105A1C008BBF002211464068FFF776BF002202219F
:105A2C004068FFF779BF00231A464068FFF764BF50
:105A3C00024B03225A60024A1A607047D4E30320D7
:105A4C00886A0D000021FFF7FBBD0021FFF700BEA7
:105A5C0010B5044601700846FFF7E2FD00236360B1
:105A6C00204610BD10B504460078FFF7EBFF48B98F
:105A7C0020784FF6FF71FFF7C3FD2078BDE810408A
:105A8C00FFF7E3BF10BD08B50078FFF7C1FDC0B24A
:105A9C0008BD0078FFF7CCBD10B5094C00204FF6BF
:105AAC00FF732060A080A07120816381FFF700FF4D
:105ABC002046044A0449BDE8104000F06DBD00BF0B
:105ACC00DCE3032028E30320AF400D0010B50446AF
:105ADC00006808B1FFF724FE204610BD10B5064C37
:105AEC00002320462360FFF713FE2046034A044997
:105AFC00BDE8104000F050BDE8E3032028E303208C
:105B0C00D95A0D00F8B506460D468F180024BD4233
:105B1C000CD0336815F8011B9B6830469847002859
:105B2C0001DB0444F3E7002C08BF04462046F8BD13
:105B3C0070B505460C46084649B100F0E1FE2B68ED
:105B4C00024621462846DB68BDE87040184770BD08
:105B5C0008B5FFF7EDFF08BD03689B68184738B51B
:105B6C000D210546FFF7F8FF0A2104462846FFF7EA
:105B7C00F3FF204438BD38B50546FFF7D9FF04467E
:105B8C002846FFF7ECFF204438BD30B58BB00B46F0
:105B9C0000218DF82410012A98BF0A220DF123044C
:105BAC00B3FBF2F505FB123303F0FF03092B94BF93
:105BBC0030333733DBB2214604F801392B46002D44
:105BCC00EED1FFF7B5FF0BB030BD0000014B024A20
:105BDC001A607047ECE30320276B0D00024B1A6828
:105BEC00024B1A60704700BFC0E20320F0E30320B1
:105BFC000021FFF765BE10B58368044613B103227C
:105C0C0001469847204610BD10B50446FFF7F3FF38
:105C1C00204610BD0348044A04490023836000F069
:105C2C00BBBC00BFF4E3032028E30320155C0D008C
:105C3C0008B50C4B33B100F05DF903681B6998474C
:105C4C00002809DC084B63B100F0D6F903681B6926
:105C5C009847002803DC08BDAFF30080F2E7AFF3F0
:105C6C00008008BD000000000000000008B5FFF730
:105C7C00DFFFFFF70DFD014B186008BD28E703207F
:105C8C000248034A0349121A00F0FEBD00F4032037
:105C9C0004F40320A06D0D0007B5002300931A46F1
:105CAC006FF07701FFF71EFE03B05DF804FB0000F8
:105CBC0007B543880A2B08D0502B09D1094B1B6818
:105CCC003BB103B05DF804EB1847FFF7E5FF06E0C6
:105CDC00002300931A466FF07701FFF703FE03B021
:105CEC005DF804FB04E4032038B5104C104D236818
:105CFC00AB42104B0CBF012200221A7002D0FFF7EE
:105D0C00BFFF2560FFF7ACFC044600F0D1FD0A4B49
:105D1C0013B12046AFF3008000210748FFF73CFE8B
:105D2C0000210648BDE83840FFF7D2BD00F403203F
:105D3C001E1C279A08E4032000000000BD5C0D0027
:105D4C00704710B51821044600F034FC204610BDF5
:105D5C00F0B5037D062B8DB00E4600F104074FF015
:105D6C00000402D000F1080518E00CAD394605F826
:105D7C00304D2F232A460A20FFF7DAFC284600F084
:105D8C00BFFD33680246DB682946304698470FE072
:105D9C0024B12E213046FFF7DFFE044415F8011D17
:105DAC000A223046FFF7F1FEBD420444F0D12046F2
:105DBC000DB0F0BD10B5054B0446112240F8043B64
:105DCC00002100F06CFD204610BD00BFC86B0D001B
:105DDC000346074A10B543F8042B01F1100251F8A1
:105DEC00044B43F8044B9142F9D10A781A7010BD58
:105DFC00C86B0D0010B59DF8084044EA032343EA34
:105E0C00024242EA016104234160037510BD37B5BB
:105E1C000D788B784A78C97800912946FFF7EAFF0C
:105E2C0003B030BD41747047704708B50021007C49
:105E3C00FFF71EFD30EA200028BF4FF0FF3008BDF1
:105E4C0008B50121007CFFF713FD30EA200028BFC4
:105E5C004FF0FF3008BD08B5007CFFF701FD20EACC
:105E6C00E07008BD08B5007CFFF7F2FC20EAE0709A
:105E7C0008BD007CFFF70CBD10B51421044600F0E2
:105E8C0099FB204610BD38B50446007C0D46FFF743
:105E9C00E7FC002801DC607C28B12946207CFFF758
:105EAC00EFFC20EAE07038BD10B5044600236360B7
:105EBC004FF47A73A360054B2360012308462174C9
:105ECC0063741146FFF7B4FC204610BDDC6B0D006B
:105EDC000022007CFFF7B4BC007CFFF7E1BCFFF7AD
:105EEC00FBBF10B514220446002100F0D8FC20465C
:105EFC0010BD000030B50E4D87B001A8FFF7F1FFC3
:105F0C00296811F0010410D12846FEF7C2F860B1DF
:105F1C0001AA21460748FFF7C7FF2846FEF7BEF83F
:105F2C00054A0649034800F037FB024807B030BD6C
:105F3C000CE4032010E4032028E30320355E0D005D
:105F4C0070474174704708B5007CFFF731FC20EABC
:105F5C00E07008BD08B5007CFFF702FC20EAE07099
:105F6C0008BD08B5007CFFF70BFC30EA200028BF09
:105F7C004FF0FF3008BD08B5007CFFF7F9FB30EAA5
:105F8C00200028BF4FF0FF3008BD007CFFF700BC9D
:105F9C0010B51421044600F00DFB204610BD70B561
:105FAC00457C04460E4625B9007CFFF701FC002811
:105FBC0005DD3146207CBDE87040FFF7C9BB2846A3
:105FCC0070BD000010B50446084611460022626000
:105FDC004FF47A72A260054A226001222074627426
:105FEC001A46FFF7ADFB204610BD00BF0C6C0D0030
:105FFC00007CFFF7D5BB000038B50C4D296811F0BB
:10600C00010411D12846FEF744F868B1084A094B3F
:10601C0009482146FFF7D6FF2846FEF73FF8074A06
:10602C000749054800F0B8FA034838BDBCE4032022
:10603C00C0E4032038E4032024E4032028E30320F5
:10604C004D5F0D007047F8B5064615460C468F1887
:10605C00BC4206D0336814F8011B9B683046984745
:10606C00F6E72846F8BD0022007CFFF7A9BB00210B
:10607C00007CFFF7ADBB0021007CFFF7B1BB00211A
:10608C00007CFFF7B5BB0021007CFFF7B9BB10B556
:10609C001421044600F08EFA204610BD10B50446BB
:1060AC00002363604FF47A73A360044B2174084699
:1060BC0023601146FFF7B4FB204610BD3C6C0D006D
:1060CC000021007CFFF7A4BB002211464068FFF7BB
:1060DC004BBC002211464068FFF756BC00224068BA
:1060EC00FFF74ABC002281F001014068FFF734BC85
:1060FC0000231A4601214068FFF726BC00231A46EC
:10610C0019464068FFF718BC002211464068FFF79B
:10611C000BBC002211464068FFF7F6BB002202219F
:10612C004068FFF7F9BB00231A464068FFF7E4BB51
:10613C0038B5054688B104684CB1A3681BB103227D
:10614C002146204698471021204600F033FA284675
:10615C001421BDE8384000F02DBA38BD10B10368E9
:10616C005B681847704710B503680446BBB15868A4
:10617C00FFF7B6FA78B923685A7C12B95868FFF75A
:10618C00B7FA23685868FFF7BBFA2068002323602E
:10619C0028B1FFF7CDFF206808B1FFF7C9FF2046F3
:1061AC0010BD38B50446D0F8C40108B1FDF76FFF37
:1061BC00D4F8C00108B1FFF7B3FAD4F8BC5135B12B
:1061CC002846FFF7D0FF0421284600F0F3F9206899
:1061DC0008B1FFF7C3FF204638BD000010B5044BD3
:1061EC00044640F8083BFFF7DCFF204610BD00BF1B
:1061FC00646C0D0038B50E4C0E4B23600025022349
:10620C0004F5E4706360A560C4F8C451C4F8C851C7
:10621C00FFF77EFA084BC4F8CC5184F8D0512360B8
:10622C002046064A0649BDE8384000F0B5B900BF23
:10623C0044E50320CC6C0D00646C0D0028E30320B6
:10624C00E9610D00002211464068FFF76DBB00228A
:10625C0011464068FFF788BB002211464068FFF7E3
:10626C0093BB00224068FFF787BB002281F001013D
:10627C004068FFF771BB00231A4619464068FFF7C8
:10628C0063BB00231A4619464068FFF755BB002232
:10629C0011464068FFF738BB002202214068FFF727
:1062AC003BBB00231A464068FFF726BB024B042277
:1062BC005A60024A1A60704718E70320986C0D0068
:1062CC0000231A464068FFF717BB002202214068E2
:1062DC00FFF722BB002211464068FFF715BB0022D6
:1062EC0011464068FFF720BB00231A461946406848
:1062FC00FFF722BB00231A4619464068FFF724BB60
:10630C00002281F001014068FFF726BB00224068A3
:10631C00FFF732BB002211464068FFF735BB002265
:10632C0011464068FFF720BB2DE9F043002495B0DF
:10633C0016460D460746FFF73DFD214620220CA8C8
:10634C00009400F0ACFA40230C9321466B460CAA47
:10635C003046FFF725F90446002844D102460121B6
:10636C006868FFF7E1FA0221804622466868FFF769
:10637C00DBFA009E81462146002E34D0002932D112
:10638C007368022B02D00A2B09D02AE0B8F1000F57
:10639C0027D0716938460431FFF739FD20E0B9F197
:1063AC00000F1ED07469112201A800F078FA0623A0
:1063BC008DF8143001AD04F10803183418685968CD
:1063CC002A4603C20833A3421546F7D101A906A8F1
:1063DC0007ADFFF7FDFC0FCD3C1D0FC42B682370E0
:1063EC000121F669C8E70098FFF7D2F8384615B0D6
:1063FC00BDE8F083024B034A1A6000225A607047D2
:10640C0020E70320CC6C0D0070B5184E316811F0EC
:10641C00010504460AD13046FDF73BFE30B1294652
:10642C001348FFF715FB3046FDF738FE1048FFF711
:10643C0030FB28B1A4F10B03022B01D8002070BD56
:10644C0000F084F8FFF73CFE08B1012CF6D9FFF7F9
:10645C00D3FDFFF7CDFD18B1A4F10903012BEDD944
:10646C00232C8CBF0020012070BD00BF2CE3032027
:10647C0030E30320232838B504460D460AD8FF29FB
:10648C0008D0FFF7C1FF28B129462046BDE83840A7
:10649C00FFF796B838BD38B504460D46FFF798F8A7
:1064AC00FF2810D0062804D84D2323FA00F0C30788
:1064BC0009D42046FFF7A8FF28B129462046BDE89D
:1064CC003840FFF78DB838BD10B50446FFF780F89B
:1064DC000438C0B2012808D92046FFF795FF20B137
:1064EC002046BDE81040FFF783B8002010BD000027
:1064FC0010B5074C2368DB0708D42046FDF7C9FD0F
:10650C0020B1FFF7CDF82046FDF7C8FD014810BDBE
:10651C002CE7032030E7032070B5044614252A46E7
:10652C00094E002100F0BBF9258020253146A560DD
:10653C002561284600F040F831466060284600F09E
:10654C003BF8E060204670BDF86C0D0030B50E4D88
:10655C00296811F0010487B013D12846FDF799FD85
:10656C0078B101A8FFF7D8FF01AA21460748FFF729
:10657C0095FD2846FDF792FD054A0649034800F0B3
:10658C000BF8024807B030BD34E7032038E703208E
:10659C0028E3032051600D000B460146184600F01D
:1065AC0065B90000024B1868BFF35F8F704700BFDE
:1065BC004CE70320FDF769BD00F000B810B50028CA
:1065CC0014BF044601242046FFF7EEF920B9FFF76B
:1065DC00E9FF08B18047F6E710BD0000184B1A68B8
:1065EC00D1075CBF01221A60164B1A68D2075CBF38
:1065FC0001221A60144B1A68D0075CBF01221A6082
:10660C00124B1A68D1075CBF01221A60104B1A6832
:10661C00D2075CBF01221A600E4B1A68D0075CBF10
:10662C0001221A600C4B1A68D1075CBF01221A6058
:10663C000A4B1A68D2075CBF01221A60704700BF70
:10664C006CE7032068E7032064E7032060E703207E
:10665C005CE7032058E7032054E7032050E70320AE
:10666C00244B1A68D0075CBF01221A60224B1A68AF
:10667C00D1075CBF01221A60204B1A68D2075CBF9D
:10668C0001221A601E4B1A68D0075CBF01221A60E7
:10669C001C4B1A68D1075CBF01221A601A4B1A688E
:1066AC00D2075CBF01221A60184B1A68D0075CBF76
:1066BC0001221A60164B1A68D1075CBF01221A60BE
:1066CC00144B1A68D2075CBF01221A60124B1A686D
:1066DC00D0075CBF01221A60104B1A68D1075CBF4F
:1066EC0001221A600E4B1A68D2075CBF01221A6095
:1066FC00704700BF9CE7032098E7032094E7032032
:10670C0090E703208CE7032088E7032084E703202D
:10671C0080E703207CE7032078E7032074E703205D
:10672C0070E70320244B1A68D0075CBF01221A6063
:10673C00224B1A68D1075CBF01221A60204B1A68E1
:10674C00D2075CBF01221A601E4B1A68D0075CBFCF
:10675C0001221A601C4B1A68D1075CBF01221A6017
:10676C001A4B1A68D2075CBF01221A60184B1A68C0
:10677C00D0075CBF01221A60164B1A68D1075CBFA8
:10678C0001221A60144B1A68D2075CBF01221A60EE
:10679C00124B1A68D0075CBF01221A60104B1A68A2
:1067AC00D1075CBF01221A600E4B1A68D2075CBF7E
:1067BC0001221A60704700BFCCE70320C8E7032012
:1067CC00C4E70320C0E70320BCE70320B8E703209D
:1067DC00B4E70320B0E70320ACE70320A8E70320CD
:1067EC00A4E70320A0E70320184B1A68D1075CBF6D
:1067FC0001221A60164B1A68D2075CBF01221A607C
:10680C00144B1A68D0075CBF01221A60124B1A682D
:10681C00D1075CBF01221A60104B1A68D2075CBF0B
:10682C0001221A600E4B1A68D0075CBF01221A6055
:10683C000C4B1A68D1075CBF01221A600A4B1A680C
:10684C00D2075CBF01221A60704700BFECE703203F
:10685C00E8E70320E4E70320E0E70320DCE703207C
:10686C00D8E70320D4E70320D0E7032010B5054C6C
:10687C0013462CB10A4601460220AFF3008010BD2E
:10688C00204610BD0000000010B5431E0A44914282
:10689C0004D011F8014B03F8014FF8E710BD024486
:1068AC000346934202D003F8011BFAE7704700003D
:1068BC0038B5124B1C68A36B0546D3B91820FFF7EB
:1068CC0073F843F20E33A06303804AF6CD33438052
:1068DC0041F2342383804EF26D63C3804DF6EC633A
:1068EC000381052343810B23838101220023C0E90B
:1068FC000423A36B00221D615A6138BD24E30320DD
:10690C00034613F8012B002AFBD1181A01387047E3
:10691C001D400D0059400D0085400D0089400D00B3
:10692C0000000000434C454152494E47204545501C
:10693C00524F4D004E6F206D617374657220636110
:10694C00726420646566696E6564005363616E20D1
:10695C006361726420746F20646566696E65206182
:10696C0073206D617374657220636172642E004DC7
:10697C006173746572204361726420446566696E4C
:10698C006564004D61737465722063617264207379
:10699C00746F7265643A20004D6173746572206384
:1069AC00617264206465746563746564004D617321
:1069BC0074657220636172642064657465637465C8
:1069CC006420616761696E004E6578742063617242
:1069DC0064207363616E6E65642077696C6C2062F1
:1069EC006520626C61636B6C6973746564004361F0
:1069FC0072642072656D6F76656400436172642009
:106A0C0077686974656C6973746564002030005430
:106A1C00616720666F756E64004D49464152455F53
:106A2C00526561642829206661696C6564002D2DAE
:106A3C002D2D2D2D2D2D2D2D2D2D2D2D2D2D2D2D7A
:106A4C002D2D2D2D2D2D2D2D0054616720676F6E52
:106A5C006500000000C00140001002400020024010
:106A6C002C01000018000000F40100002C010000B3
:106A7C00500000000000000000000000335A0D0020
:106A8C00295A0D001F5A0D00155A0D00095A0D00F8
:106A9C00FD590D00F1590D00E9590D00DF590D009C
:106AAC00D5590D0035630D00626175640053657234
:106ABC0069616C0053657269616C31007479706541
:106ACC0000706172616D00636D6400696400686ED2
:106ADC0064007374726D0066696C74006C766C0083
:106AEC0061646448616E646C65720072656D6F768A
:106AFC006548616E646C657200656E756D48616E9B
:106B0C00646C657273004A534F4E53747265616DB9
:106B1C004C6F6748616E646C657200617070002523
:106B2C003031307520005D20002564002C200028B9
:106B3C00293A2000205B00636F6465203D2000250E
:106B4C00690064657461696C73203D20000D0A0056
:106B5C0066006C6E00666E00636F6465006465743D
:106B6C0061696C006E6F6E650074726163650069BB
:106B7C006E666F007761726E006572726F72007074
:106B8C00616E696300616C6C005A00252B303364B4
:106B9C003A253032750025592D256D2D2564542547
:106BAC00483A254D3A2553257A0061736374696D13
:106BBC006500000000000000000000005D5D0D009D
:106BCC004D5D0D004F5D0D00000000000000000049
:106BDC00355E0D00855E0D00935E0D00115B0D00A2
:106BEC00715E0D00375E0D004D5E0D007F5E0D0079
:106BFC00635E0D00315E0D0000000000000000001F
:106C0C004D5F0D009D5F0D00AB5F0D00115B0D0026
:106C1C00615F0D00835F0D006F5F0D00975F0D00CE
:106C2C004F5F0D00535F0D000000000000000000DE
:106C3C0051600D009B600D0073600D0053600D00E2
:106C4C007B600D0083600D008B600D0093600D0068
:106C5C00000000000000000033610D0029610D00F0
:106C6C001F610D0015610D0009610D00FD600D0027
:106C7C00F1600D00E9600D00DF600D00D5600D00C6
:106C8C0035630D000000000000000000AF620D0035
:106C9C00A5620D009B620D0051620D008F620D000C
:106CAC0083620D0077620D006F620D0065620D004E
:106CBC005B620D0035630D00000000000000000059
:106CCC00CD620D00D7620D00E1620D00EB620D008C
:106CDC00F5620D0001630D000D630D0019630D00CD
:106CEC0021630D002B630D0035630D0000000000C7
:106CFC000000000000000000000000000000000088
:106D0C000000000000000000000000000000000077
:106D1C000000000000000000000000000000000067
:106D2C000000000000000000000000000000000057
:106D3C000000000000000000000000000000000047
:106D4C000000000000000000000000000000000037
:106D5C00430000002D480D00D5500D0089550D0045
:106D6C003D5A0D00A55A0D00E95A0D00D95B0D00D6
:106D7C00E95B0D00215C0D0001620D00B9620D0094
:106D8C0001640D00E9650D006D660D0031670D00A5
:046D9C00F5670D008A
:046DA00000000000EF
:106DA400B66B0D0000000000FC6C0D001C6D0D00A6
:106DB4003C6D0D0000000000000000000000000019
:106DC400000000005C6D0D000000000000000000E9
:106DD40000000000000000000000000000000000AF
:106DE400000000000000000000000000000000009F
:106DF400000000000000000000000000000000008F
:086E040000000000C4E20320BD
:106E0C00FFFFFFFF00000102030405060708090A43
:106E1C000B0C0D0E0F101112131415161718191A3E
:086E2C001B1C1D1E1F20280085
:046E34007856341246
:04000003D000401CCD
:00000001FF
