:02000002D0002C
:1040000000400D0054680D00000006000C00050182
:084010000401E80500000000B6
:0440180028640D000B
:10401C0009480A49884208B505D0094A824202D0AB
:10402C00121A02F0B7F90748074A0021121A02F0D7
:10403C00BCF9014808BD00BFD4E20320C4670D00E1
:10404C003CE303203CE30320F0E7032070B501F0D0
:10405C00E5FB074C074BE41AA40800251E46A542B5
:10406C0004D056F8253098470135F8E770BD00BFED
:10407C00C0670D0080670D0000F01CB808B500F09B
:10408C00DFF8BDE8084001F08BBB01F02FBA01F05E
:10409C002DBA0078B0FA80F0400970470123037004
:1040AC00704710B50446006808B101F01FFA2046AD
:1040BC0010BD000038B501F0B7FC4FF4165101F0FB
:1040CC00A1FC01F0B1FC01F0A4FC0028F9D0154DC5
:1040DC00296811F001040AD12846FFF7DAFF30B144
:1040EC002146114801F04EFA2846FFF7D7FF0E483B
:1040FC0001F052FA0D4800F091FA0D4800F0CFFD96
:10410C00002400221146104600F0EDFFA1B2024639
:10411C00074800F09DFF0134054800F0F7FD0C2C1A
:10412C00EFD138BD40E3032044E3032061E30320D7
:10413C004CE3032070B500240025E6B20022314682
:10414C00104600F0D0FFA9B202463C4800F080FFB8
:10415C0001353A4800F0DAFD0C2DEFD10520013481
:10416C0001F0E0FA322CE7D140F2D66001F0DAFA35
:10417C0000253224AEB20022E1B2104600F0B3FFAB
:10418C00314602462D4800F063FF2C4800F0BEFD7E
:10419C00052001F0C7FA013CEDD12246214620460C
:1041AC0000F0A1FF31460246244800F051FF0135D2
:1041BC00224800F0ABFD0C2DDBD10025E6B200222D
:1041CC001146304600F08FFFA9B202461B4800F0A2
:1041DC003FFF0135194800F099FD0C2DEFD102205D
:1041EC00013401F09FFA322CE7D10025E6B200220F
:1041FC001146304600F077FFA9B202460F4800F096
:10420C0027FF01350D4800F081FD0C2DEFD1022068
:10421C0001F088FA013CE8D100221146104600F06A
:10422C0062FFA1B20246054800F012FF01340348B8
:10423C0000F06CFD0C2CEFD170BD00BF4CE30320E3
:10424C002DE9F7434F4E504A504D33782B7013687D
:10425C004F480133022B1360C8BF4E4B02AC1746BC
:10426C00C4BF00221A7024210223002204F8063D48
:10427C0000F00DF900222621454800F008F926220D
:10428C004821434800F003F9224601A9404800F0B8
:10429C0033FB0128044608D13D4800F080FC00287F
:1042AC006DD000233B603B4B1C703A4B1B7833703A
:1042BC00002B5BD02C78002C58D101F0B5FB364983
:1042CC00364F01F0F2F902AB1222A10003F8052DD2
:1042DC0001F0FC01324A2E4800F08FFC28B901F0A5
:1042EC00A3FB304901F0E1F949E02D4821010023FD
:1042FC0003EB010E002200EB030919F8028007EB17
:10430C00020C0132042A0CF80E80DFF89080F4D1F4
:10431C000433102BECD10134042CD4D11C4800F004
:10432C0047FC01F081FB204901F0BFF90024002774
:10433C0001F07AFB08EB07031022195D01F0BFF9BD
:10434C00013701F071FB194901F09CF9042FEFD1F1
:10435C0001F06AFB043401F09CF9402CE7D101F028
:10436C0063FB114901F0A1F9FFF7E4FE337833B98F
:10437C002B7823B101F058FB0D4901F096F903B0ED
:10438C00BDE8F083B4E30320B0E3032060E3032033
:10439C0061E30320D6E303203C640D006FE30320AC
:1043AC00C4E3032046640D005B640D0059650D00E9
:1043BC0076640D0038B5134C134D00F0B3FE00239A
:1043CC002360A380A37123814FF6FF7363810320C5
:1043DC0001F008F820460D4C0D492A4601F062FE0A
:1043EC00022306220C21204600F07EFC2A460949B5
:1043FC00204601F057FE052204210748BDE838404D
:10440C0000F00CB8B8E303203CE303204CE303209A
:10441C00AF400D00554C0D0061E3032038B5044648
:10442C00084621730121154601F0BEFD207B0121B8
:10443C0001F0CBFD28466573012101F0B5FD607BD1
:10444C00002101F0C2FD204638BD000038B5094DF1
:10445C00296811F001040AD12846FFF71AFE30B181
:10446C002146054801F08EF82846FFF717FE024852
:10447C0038BD00BF40E3032044E3032010B50446DD
:10448C00FFF7E4FF2146BDE8104001F096B870B587
:10449C0004460E46007B0021154601F096FD06F001
:1044AC007E00FFF7EBFF2846FFF7E8FF207B01219A
:1044BC00BDE8704001F089BDF8B50D4606460021F7
:1044CC00007B1F46144601F080FD05F07E00FFF7CF
:1044DC00D5FF013C7D1E3C44A54204D015F8010FCC
:1044EC00FFF7CCFFF8E7307B0121BDE8F84001F085
:1044FC006CBD38B505460C46007B002101F065FD0E
:10450C0004F07E0040F08000FFF7B8FF0020FFF7BA
:10451C00B5FF01210446287B01F057FD204638BD2C
:10452C0070B505460E461446FFF7E3FF40EA040259
:10453C0031462846D2B2BDE87040FFF7A8BF70B52F
:10454C0005460E461446FFF7D4FF20EA0402314616
:10455C002846D2B2BDE87040FFF799BFF8B50446C3
:10456C0015460F46002202211E46FFF790FF04223B
:10457C000A212046FFF78BFF802214212046FFF7EB
:10458C00CFFF2A463B4612212046FFF795FF032218
:10459C0002212046FFF77BFF41F288350A21204695
:1045AC00FFF7A7FF430705D4013DADB2002DF5D1B0
:1045BC000420F8BD002220460221FFF768FF4421A9
:1045CC002046FFF796FF422130702046FFF791FFFF
:1045DC0070700120F8BD10B50F2202210446FFF7C0
:1045EC0056FF322001F09EF802212046FFF781FF92
:1045FC00C306F9D410BD10B528210446FFF779FF86
:10460C0000F00303032B08D040F00302D2B2204683
:10461C002821BDE81040FFF73ABF10BD10B5044685
:10462C00407B01F0EBFC38B9607B012101F0CDFC43
:10463C00322001F077F802E02046FFF7CCFF20464D
:10464C0080225421FFF723FF2046A9225621FFF791
:10465C001EFF204603225821FFF719FF2046E822AF
:10466C005A21FFF714FF204640222A21FFF70FFFA3
:10467C0020463D222221FFF70AFF2046BDE81040CC
:10468C00FFF7B9BF2DE9F84F80461F469DF82890DB
:10469C001546002A3FD001F07E0141F08006007BD8
:1046AC00002101F092FC3046FFF7E8FE013DEDB22F
:1046BC004FF0000B4FF0010A5FFA8BF4A5421FD9A3
:1046CC00B4B9B9F1000F13D04B46072B06D80AFA30
:1046DC0003F004430133E4B2DBB2F6E73046FFF7F4
:1046EC00CDFE3B78204023EA04031843387004E0E5
:1046FC003046FFF7C3FE07F80B000BF1010BDBE7AD
:10470C000020FFF7BBFE7855012198F80C00BDE89E
:10471C00F84F01F05ABCBDE8F88F2DE9F04F87B087
:10472C000446DDF84C8002928B46119F129D9DF839
:10473C0050A0B8F1000F02D098F8006000E0464697
:10474C000022022120460393FFF7A1FE7F220821BD
:10475C002046FFF79CFE06EB0A1680221421204609
:10476C00FFF7DEFEF6B2039B9DF840201221204697
:10477C00FFF7A2FE32461A212046FFF788FE5A4662
:10478C0002212046FFF783FEBBF10C0F04D18022DF
:10479C001A212046FFF7C4FE4FF4FA660821204682
:1047AC00FFF7A7FE029B184204D1C20752D4013E68
:1047BC00F4D14FE00C212046FFF79BFE10F0130FB5
:1047CC00064649D1DFB1D5B114212046FFF791FE41
:1047DC002B788342024641D328703B461221204657
:1047EC00CDF800A0FFF74EFF18212046FFF781FE01
:1047FC0000F00709B8F1000F01D088F800903307DA
:10480C002ED47FB375B39DF854305BB32A78012A4C
:10481C0004D1B9F1040F27D1092026E024D9B9F12C
:10482C00000F21D1023A05ABD2B239462046FFF730
:10483C0095FE012819D12B781F449DF8143017F8D8
:10484C00022C9A4210D117F8012C9DF815309A427F
:10485C000AD10AE0042008E0022006E0052004E06A
:10486C00032002E0012000E0082007B0BDE8F08F33
:10487C0010B586B09DF82C4005949DF82840049402
:10488C00099C0394089C8DE81C000B4630220C21DB
:10489C00FFF743FF06B010BD70B588B006461C4646
:1048AC008DF81710154612B31B78012B1FD98022D7
:1048BC001C21FFF744FE07238DF81F3000230393C0
:1048CC0002930DF11F03019300942B4601220DF16D
:1048DC0017013046FFF7CCFF01280BD120780228B6
:1048EC0007D19DF81F30002B08BF012002E00520E6
:1048FC0000E0022008B070BD13460A462621FFF7DF
:10490C00CBBF2DE9F04F502A8BB083468A46174611
:10491C0000F2F58080221C21FFF711FE0125022DEB
:10492C0010D0032D1BD0012D40F0EB8093238DF87C
:10493C001C30D7B19AF80030042B94BF002301230C
:10494C00002616E06FF06A038DF81C307FB19AF8E0
:10495C000030072B94BF00230123032609E0972383
:10496C008DF81C300626002303E03E4600E00326AB
:10497C003B46A7EBC60464B224EAE4742BB188224C
:10498C008DF81E204FF0030801E04FF00208E1B251
:10499C0011F0070218BF012202EBE40212F0FF0231
:1049AC0006D1002B00F08B8001F1080464B286E084
:1049BC00002B14BF03200420824228BF0246002093
:1049CC0008EB000E0DF1280C5CFA8EFE06EB000CC9
:1049DC00D44401309CF801C00EF80CCC5FFA80FE78
:1049EC009645EDD3DDE7012840F08D801F2C00F3B8
:1049FC008C8020244FF070039DF81E208DF81D3004
:104A0C009DF81F3053409DF820205A409DF82130CE
:104A1C0053408DF8223007220DF1230307A9584685
:104A2C00FFF79CFD012840F0B7804FF000038DF894
:104A3C001A3003238DF81B3009230DF1220904933E
:104A4C000DF128081A2118F80E3D059303EB0312FB
:104A5C00D2B25846FFF71BFD00230393059B02932C
:104A6C000DF11B03CDF804800093049A4B4607A963
:104A7C005846FFF7FDFE03288046B4D11C2158464A
:104A8C00FFF737FD81063ED410F01F0008BF202031
:104A9C00A04236DD44B2013800F0070310F00700E5
:104AAC0018BF012000EBE4000AAA013010440122D7
:104ABC0002FA03F310F80C2C134300F80C3C1F2CD7
:104ACC0098DCE31004F007080233DBB25FFA88F2DB
:104ADC008DF81A20B8F1000F0CBF984603F10108AD
:104AEC0002EB03128DF81D205FFA88F2049207AADC
:104AFC0002EB0309C3F109038DF81B30A0E7072073
:104B0C004AE0062048E0404646E09DF81E30882BDF
:104B1C003FD0022204240023D0180DF1280EF118E6
:104B2C005EFA80F0514410F80C0C48700133D9B285
:104B3C008C42F1D89DF81B30032B26D19DF81A30EE
:104B4C001BBB0DF11E03012249465846FFF706FD1B
:104B5C00012821D19DF81E2099F801309A4216D1D6
:104B6C009DF81F2099F802309A4210D199F8003024
:104B7C005A0702D50135EDB2D1E605EB45050135F5
:104B8C008AF80B308AF8005006E0022004E0082076
:104B9C0002E003221446BEE70BB0BDE8F08F08B567
:104BAC0000220146FFF7ADFE431E5842584108BD96
:104BBC0070B586B050238DF8143000250DF1160316
:104BCC00022205A906468DF81550FFF7C7FC0128EF
:104BDC0004460FD103950295019500952B460422AE
:104BEC0005A93046FFF744FE042803D0012808BF6E
:104BFC00022000E0204606B070BD7FB506461D467B
:104C0C001446C2B11B78112B15D930231370517077
:104C1C00931C21460222FFF7A1FC01280CD1002392
:104C2C0003900293019300952346042221463046BB
:104C3C00FFF71EFE00E0052004B070BD00F072BA54
:104C4C0000F0D8BA00F0CEBA10B50446C06808B16E
:104C5C0000F04CFC23781BB10021E07901F0A4F9A1
:104C6C00204610BD38B50446C0680D4608B100F0AA
:104C7C003DFCA379062B0CBF0420032010FB05F090
:104C8C0080B2A08000F02AFCE06028B1A28800214C
:104C9C0001F08BFB658038BDA080608038BD10B5FD
:104CAC0004460121C07901F07FF90021E07901F07F
:104CBC008CF90123237010BD38B5037805460C46DA
:104CCC001BB10021C07901F06FF92B78EC7153B155
:104CDC00A4B22046012101F067F920460021BDE86D
:104CEC00384001F072B938BD70B50025044616463F
:104CFC00837105700572C5600561FFF7B3FF20462F
:104D0C003146FFF7D9FF204670BD0000C368002B69
:104D1C0000F08B812DE9F04F8379023BDBB2042B41
:104D2C009CBFC44A52F8234087B0054688BF322442
:104D3C00FFF786FF2B69C01AA042F9D3BE4AAB8895
:104D4C0007CA06AC04E90700039C1B01D4F8002534
:104D5C000433019322B9D4F86035002BC0F255818D
:104D6C00049CD4F8003523B9D4F86035002BC0F27C
:104D7C003C81059CD4F800351BB9D4F86035002B68
:104D8C006EDBAE4BEA791E68AD4CAE49E0681201A1
:104D9C00B31840F080705B78B75CE0600A6803F091
:104DAC001F0343EA471301273A430A600C46A888BD
:104DBC00D5F80C90D4F804A09F408846002844D025
:104DCC00CC4600224FF0A0411CF801EB08208026B5
:104DDC0063689B1A462BFBD9D8F80420D1F8083508
:104DEC001EEA060F43EA0703C1F808352FD06368A3
:104DFC009B1A282BFBD9D1F80C35013843EA070351
:104E0C004FEA5606C1F80C35E2D1C9EB0C03A88861
:104E1C009BB29842D8D84FF4307303FB00F0636810
:104E2C009B1A462BFBD9D8F80430CAEB030A8245EF
:104E3C00C0F0D5804FF49670FFF704FFA888D5F822
:104E4C000C90D4F804A00028BAD10246E7E76368B6
:104E5C009B1A112BCFD863689B1A112BF7D9CAE771
:104E6C00D4F86435002B8CDAD4F86835002B88DA4A
:104E7C00D4F86C35002B84DA019800F02FFB002855
:104E8C003FF47FAFAB88002B00F0D08000273B466F
:104E9C006D4E6E4900E01346EA68D25D03F1010ED7
:104EAC0012F0800F14BFB04688461FFA8EFE12F027
:104EBC00400F14BFB146894612F0200F20F8138022
:104ECC0018BFB24620F81E9008BF8A4603F10208AC
:104EDC0012F0100F03F1030E14BFB4468C461FFAE8
:104EEC0088F812F0080F1FFA8EFE03F104091FFA5E
:104EFC0089F914BFB3468B4612F0040F20F818A0A2
:104F0C0020F81EC014BFB2468A4603F1050812F001
:104F1C00020F03F1060C03F1070E20F819B01FFA6B
:104F2C008EFE14BFB14689461FFA88F812F0010FA5
:104F3C001FFA8CFC14BF32460A4620F818A020F841
:104F4C001C9020F81E200137B5F804E0BFB203F125
:104F5C000802BE4592B29ED803F109020A3392B2FE
:104F6C009BB252005B0001994FF4004686524908EF
:104F7C00C65200221423C4F80425304EC4F80C2564
:104F8C00C4F80835C4F81425C4F81025C4F8200555
:104F9C00C4F82415C4F82825C4F82C25EB793168FD
:104FAC001B01CE18C95C737803F01F0343EA41134D
:104FBC000121C4F86035C4F80015C4F81021A160B3
:104FCC00D4F81031002BFBD000234FF0FF32C4F883
:104FDC001031C4F80035C4F8602500F087FAFFF7EB
:104FEC002FFE286107B0BDE8F08FD4F86435002B94
:104FFC00BFF6BFAED4F86835002BBFF6BAAED4F806
:10500C006C35002BBFF6B5AE36E7D4F86435002B03
:10501C00BFF6A6AED4F86835002BBFF6A1AED4F817
:10502C006C35002BBFF69CAE26E77047042302229A
:10503C0099E700BF8C640D0080640D00D8E3032059
:10504C00F0ED00E0001000E00D80FFFF0680FFFF98
:10505C0043888B42F0B545D9057AC2F30743C2F3B6
:10506C000724D6B245B16B436C436E43C3F307239D
:10507C00C4F30724C6F3072690F806C0C768BCF132
:10508C00060F0CBF042503256943BCF1080F07EB81
:10509C00010524D84FF0010E0EFA0CFE1EF4D27F3F
:1050AC000CD11EF0400F0DD11EF0100F17D0FF2B9E
:1050BC0008BFFE237B546E70AC70F0BD7C546B70DB
:1050CC00AE70F0BD7B546C70AE70037A120E0BB9DF
:1050DC00D2B202E05A43C2F30722EA70F0BD7B540D
:1050EC006C70AE70F0BD42EA012242EA004070479B
:1050FC0008B500F017F800F015F8014B186008BD62
:10510C00D8E3032008B5024B1B689B68019308BDCC
:10511C006802030008B5024B1B68DB68019308BDED
:10512C006802030008B5024B1B681B68019308BD9D
:10513C002C02030008B5024B1B689B68019308BD49
:10514C002C02030008B5024B1B68DB68019308BDF9
:10515C002C02030008B5024B1B681B69019308BDA8
:10516C002C02030008B5024B1B685B69019308BD58
:10517C002C02030008B5024B1B681B68019308BD89
:10518C003002030008B5024B1B685B69019308BD34
:10519C003002030008B5024B1B68DB69019308BDA4
:1051AC003002030008B5024B1B681B6A019308BD53
:1051BC003002030008B5024B1B681B6C019308BD41
:1051CC003002030008B5024B1B685B6C019308BDF1
:1051DC003002030008B5024B1B685B68019308BDE5
:1051EC001802030008B5024B1B68DB68019308BD6D
:1051FC001802030008B5024B1B681B69019308BD1C
:10520C001802030008B5024B1B685B69019308BDCB
:10521C001802030008B5024B1B689B68019308BD7C
:10522C004802030008B5024B1B681B69019308BDBB
:10523C004802030008B5024B1B685B69019308BD6B
:10524C004802030008B5024B1B685B6C019308BD58
:10525C004802030008B5024B1B689B6C019308BD08
:10526C004802030008B5024B1B685B69019308BD3B
:10527C006402030008B5024B1B681B68019308BD50
:10528C003C02030008B5024B1B68DB68019308BDA8
:10529C003C02030008B5024B1B681B69019308BD57
:1052AC003C02030008B5024B1B685B69019308BD07
:1052BC003C02030008B5024B1B689B69019308BDB7
:1052CC003C02030008B5024B1B68DB69019308BD67
:1052DC003C02030008B5024B1B681B6A019308BD16
:1052EC003C02030008B5024B1B689B6A019308BD86
:1052FC003C02030008B5024B1B681B6A019308BDF6
:10530C002802030008B5024B1B685B6A019308BDB9
:10531C002802030008B5024B1B689B6A019308BD69
:10532C002802030008B5024B1B68DB6A019308BD19
:10533C002802030008B5024B1B681B6B019308BDC8
:10534C002802030008B5024B1B685B6B019308BD78
:10535C002802030008B5024B1B681B6C019308BDA7
:10536C002802030008B5024B1B681B68019308BD9B
:10537C004C02030008B5024B1B685B68019308BD27
:10538C004C02030008B5024B1B681B69019308BD56
:10539C004C02030008B5024B1B685B69019308BD06
:1053AC004C02030008B5024B1B689B69019308BDB6
:1053BC004C02030008B5024B1B68DB69019308BD66
:1053CC004C02030008B5024B1B681B6A019308BD15
:1053DC004C02030008B5024B1B685B6A019308BDC5
:1053EC004C02030008B5024B1B685B68019308BDB7
:1053FC002002030008B5024B1B685B69019308BDD2
:10540C002002030008B5034B1B68D3F888300193C6
:10541C0008BD00002002030008B5034B1B68D3F83D
:10542C009430019308BD00002002030008B5024B24
:10543C001B685B68019308BD4002030008B5024B72
:10544C001B689B68019308BD4002030008B5024B22
:10545C001B68DB68019308BD4002030008B5024BD2
:10546C001B681B69019308BD4002030008B5024B81
:10547C001B685B69019308BD4002030008B5024B31
:10548C001B689B69019308BD4002030008B5024BE1
:10549C001B68DB69019308BD4002030008B5024B91
:1054AC001B681B6A019308BD4002030008B5024B40
:1054BC001B681B6B019308BD4002030008B5024B2F
:1054CC001B685B6B019308BD4002030008B5024BDF
:1054DC001B68DB6B019308BD4402030008B5024B4B
:1054EC001B681B68019308BD1C02030008B5024B26
:1054FC001B685B68019308BD1C0203000022114667
:10550C004068FFF7CBBF002211464068FFF7D6BFBB
:10551C0000224068FFF7CABF002281F001014068F9
:10552C00FFF7B4BF00231A4619464068FFF7A6BF21
:10553C0000231A4619464068FFF798BF002211460F
:10554C004068FFF78BBF002211464068FFF776BF1B
:10555C00002202214068FFF779BF00231A464068F9
:10556C00FFF764BF024B03225A60024A1A6070476D
:10557C00DCE30320A8640D000021FFF71BBE002113
:10558C00FFF720BE10B5044601700846FFF702FE77
:10559C0000236360204610BD10B504460078FFF769
:1055AC00EBFF48B920784FF6FF71FFF7E3FD207849
:1055BC00BDE81040FFF7E3BF10BD08B50078FFF75A
:1055CC00E1FDC0B208BD0078FFF7ECBD10B5094C89
:1055DC0000204FF6FF732060A080A07120816381B2
:1055EC00FFF700FF2046044A0449BDE8104000F0D4
:1055FC0059BD00BFE4E303203CE30320AF400D00A2
:10560C0010B50446006808B1FFF724FE204610BD13
:10561C0010B5064C002320462360FFF713FE2046EE
:10562C00034A0449BDE8104000F03CBDF0E3032000
:10563C003CE303200D560D00F8B506460D468F18B9
:10564C000024BD420CD0336815F8011B9B68304612
:10565C009847002801DB0444F3E7002C08BF0446FC
:10566C002046F8BD70B505460C46084649B100F019
:10567C00CDFE2B68024621462846DB68BDE870400B
:10568C00184770BD08B5FFF7EDFF08BD03689B68B0
:10569C00184738B50D210546FFF7F8FF0A210446D7
:1056AC002846FFF7F3FF204438BD38B50546FFF711
:1056BC00D9FF04462846FFF7ECFF204438BD30B52F
:1056CC008BB00B4600218DF82410012A98BF0A22BA
:1056DC000DF12304B3FBF2F505FB123303F0FF03CA
:1056EC00092B94BF30333733DBB2214604F8013930
:1056FC002B46002DEED1FFF7B5FF0BB030BD0000EF
:10570C00014B024A1A607047F4E3032047650D0011
:10571C00024B1A68024B1A60704700BFD4E2032098
:10572C00F8E303200021FFF765BE10B5836804463B
:10573C0013B1032201469847204610BD10B504460C
:10574C00FFF7F3FF204610BD0348044A0449002329
:10575C00836000F0A7BC00BFFCE303203CE3032004
:10576C0049570D0008B50C4B33B100F05DF90368D7
:10577C001B699847002809DC084B63B100F0D6F987
:10578C0003681B699847002803DC08BDAFF3008051
:10579C00F2E7AFF3008008BD00000000000000003D
:1057AC0008B5FFF7DFFFFFF72DFD014B186008BDB3
:1057BC0030E703200248034A0349121A00F0EABDFD
:1057CC0000F4032004F40320C0670D0007B5002388
:1057DC0000931A466FF07701FFF71EFE03B05DF8D9
:1057EC0004FB000007B543880A2B08D0502B09D1C5
:1057FC00094B1B683BB103B05DF804EB1847FFF78E
:10580C00E5FF06E0002300931A466FF07701FFF7DF
:10581C0003FE03B05DF804FB0CE4032038B5104C18
:10582C00104D2368AB42104B0CBF012200221A70A2
:10583C0002D0FFF7BFFF2560FFF7CCFC044600F059
:10584C00BDFD0A4B13B12046AFF300800021074881
:10585C00FFF73CFE00210648BDE83840FFF7D2BDFB
:10586C0000F403201E1C279A10E403200000000003
:10587C00F1570D00704710B51821044600F020FCBC
:10588C00204610BDF0B5037D062B8DB00E4600F101
:10589C0004074FF0000402D000F1080518E00CAD2D
:1058AC00394605F8304D2F232A460A20FFF7DAFC3B
:1058BC00284600F0ABFD33680246DB6829463046CB
:1058CC0098470FE024B12E213046FFF7DFFE044449
:1058DC0015F8011D0A223046FFF7F1FEBD420444C3
:1058EC00F0D120460DB0F0BD10B5054B0446112289
:1058FC0040F8043B002100F058FD204610BD00BFCD
:10590C00E8650D000346074A10B543F8042B01F176
:10591C00100251F8044B43F8044B9142F9D10A7828
:10592C001A7010BDE8650D0010B59DF8084044EAEA
:10593C00032343EA024242EA0161042341600375F6
:10594C0010BD37B50D788B784A78C9780091294607
:10595C00FFF7EAFF03B030BD41747047704708B5DC
:10596C000021007CFFF71EFD30EA200028BF4FF01D
:10597C00FF3008BD08B50121007CFFF713FD30EAAC
:10598C00200028BF4FF0FF3008BD08B5007CFFF7A2
:10599C0001FD20EAE07008BD08B5007CFFF7F2FCC1
:1059AC0020EAE07008BD007CFFF70CBD10B5142197
:1059BC00044600F085FB204610BD38B50446007C3B
:1059CC000D46FFF7E7FC002801DC607C28B1294676
:1059DC00207CFFF7EFFC20EAE07038BD10B50446E0
:1059EC00002363604FF47A73A360054B236001239B
:1059FC000846217463741146FFF7B4FC204610BDB1
:105A0C00FC650D000022007CFFF7B4BC007CFFF7A6
:105A1C00E1BCFFF7FBBF10B514220446002100F0D7
:105A2C00C4FC204610BD000030B50E4D87B001A857
:105A3C00FFF7F1FF296811F0010410D12846FEF799
:105A4C0028FB60B101AA21460748FFF7C7FF28468B
:105A5C00FEF724FB054A0649034800F023FB0248E5
:105A6C0007B030BD14E4032018E403203CE303200A
:105A7C0069590D0070474174704708B5007CFFF7F9
:105A8C0031FC20EAE07008BD08B5007CFFF702FC91
:105A9C0020EAE07008BD08B5007CFFF70BFC30EA8B
:105AAC00200028BF4FF0FF3008BD08B5007CFFF781
:105ABC00F9FB30EA200028BF4FF0FF3008BD007C16
:105ACC00FFF700BC10B51421044600F0F9FA20468B
:105ADC0010BD70B5457C04460E4625B9007CFFF719
:105AEC0001FC002805DD3146207CBDE87040FFF745
:105AFC00C9BB284670BD000010B5044608461146C7
:105B0C00002262604FF47A72A260054A2260012280
:105B1C00207462741A46FFF7ADFB204610BD00BF1F
:105B2C002C660D00007CFFF7D5BB000038B50C4D82
:105B3C00296811F0010411D12846FEF7AAFA68B1C0
:105B4C00084A094B09482146FFF7D6FF2846FEF7BD
:105B5C00A5FA074A0749054800F0A4FA034838BDDE
:105B6C00C4E40320C8E4032040E403202CE4032015
:105B7C003CE30320815A0D007047F8B506461546E4
:105B8C000C468F18BC4206D0336814F8011B9B6876
:105B9C0030469847F6E72846F8BD0022007CFFF710
:105BAC00A9BB0021007CFFF7ADBB0021007CFFF7F7
:105BBC00B1BB0021007CFFF7B5BB0021007CFFF7D7
:105BCC00B9BB10B51421044600F07AFA204610BD7A
:105BDC0010B50446002363604FF47A73A360044B42
:105BEC002174084623601146FFF7B4FB204610BD14
:105BFC005C660D000021007CFFF7A4BB002211465F
:105C0C004068FFF74BBC002211464068FFF756BCBA
:105C1C0000224068FFF74ABC002281F00101406875
:105C2C00FFF734BC00231A4601214068FFF726BC5D
:105C3C0000231A4619464068FFF718BC002211468B
:105C4C004068FFF70BBC002211464068FFF7F6BB1B
:105C5C00002202214068FFF7F9BB00231A46406876
:105C6C00FFF7E4BB38B5054688B104684CB1A368AE
:105C7C001BB103222146204698471021204600F0F4
:105C8C001FFA28461421BDE8384000F019BA38BD77
:105C9C0010B103685B681847704710B50368044679
:105CAC00BBB15868FFF7B6FA78B923685A7C12B9B9
:105CBC005868FFF7B7FA23685868FFF7BBFA2068F3
:105CCC000023236028B1FFF7CDFF206808B1FFF750
:105CDC00C9FF204610BD38B50446D0F8C40108B140
:105CEC00FEF7D5F9D4F8C00108B1FFF7B3FAD4F830
:105CFC00BC5135B12846FFF7D0FF0421284600F0EF
:105D0C00DFF9206808B1FFF7C3FF204638BD00005B
:105D1C0010B5044B044640F8083BFFF7DCFF204667
:105D2C0010BD00BF84660D0038B50E4C0E4B2360C1
:105D3C000025022304F5E4706360A560C4F8C45127
:105D4C00C4F8C851FFF77EFA084BC4F8CC5184F85C
:105D5C00D05123602046064A0649BDE8384000F081
:105D6C00A1B900BF4CE50320EC660D0084660D0064
:105D7C003CE303201D5D0D00002211464068FFF737
:105D8C006DBB002211464068FFF788BB002211460C
:105D9C004068FFF793BB00224068FFF787BB0022E7
:105DAC0081F001014068FFF771BB00231A461946C8
:105DBC004068FFF763BB00231A4619464068FFF79B
:105DCC0055BB002211464068FFF738BB0022022168
:105DDC004068FFF73BBB00231A464068FFF726BB21
:105DEC00024B04225A60024A1A60704720E70320D3
:105DFC00B8660D0000231A464068FFF717BB002257
:105E0C0002214068FFF722BB002211464068FFF7D1
:105E1C0015BB002211464068FFF720BB00231A4631
:105E2C0019464068FFF722BB00231A461946406802
:105E3C00FFF724BB002281F001014068FFF726BB6D
:105E4C0000224068FFF732BB002211464068FFF782
:105E5C0035BB002211464068FFF720BB2DE9F0430B
:105E6C00002495B016460D460746FFF73DFD21462A
:105E7C0020220CA8009400F098FA40230C932146A1
:105E8C006B460CAA3046FFF745F90446002844D16E
:105E9C00024601216868FFF7E1FA0221804622469A
:105EAC006868FFF7DBFA009E81462146002E34D04D
:105EBC00002932D17368022B02D00A2B09D02AE0B8
:105ECC00B8F1000F27D0716938460431FFF739FD5E
:105EDC0020E0B9F1000F1ED07469112201A800F066
:105EEC0064FA06238DF8143001AD04F1080318345C
:105EFC00186859682A4603C20833A3421546F7D1DD
:105F0C0001A906A807ADFFF7FDFC0FCD3C1D0FC482
:105F1C002B6823700121F669C8E70098FFF7F2F8A7
:105F2C00384615B0BDE8F083024B034A1A600022D4
:105F3C005A60704728E70320EC660D0070B5184EC8
:105F4C00316811F0010504460AD13046FEF7A1F87C
:105F5C0030B129461348FFF715FB3046FEF79EF883
:105F6C001048FFF730FB28B1A4F10B03022B01D82A
:105F7C00002070BD00F070F8FFF73CFE08B1012C5A
:105F8C00F6D9FFF7D3FDFFF7CDFD18B1A4F1090346
:105F9C00012BEDD9232C8CBF0020012070BD00BF3C
:105FAC0040E3032044E30320232838B504460D4680
:105FBC000AD8FF2908D0FFF7C1FF28B1294620468F
:105FCC00BDE83840FFF7B6B838BD38B504460D46C5
:105FDC00FFF7B8F8FF2810D0062804D84D2323FA71
:105FEC0000F0C30709D42046FFF7A8FF28B12946C3
:105FFC002046BDE83840FFF7ADB838BD10B50446B3
:10600C00FFF7A0F80438C0B2012808D92046FFF7E2
:10601C0095FF20B12046BDE81040FFF7A3B8002043
:10602C0010BD000070B5044614252A46094E002107
:10603C0000F0BBF9258020253146A5602561284656
:10604C0000F040F831466060284600F03BF8E06014
:10605C00204670BD18670D0030B50E4D296811F043
:10606C00010487B013D12846FEF713F878B101A8C4
:10607C00FFF7D8FF01AA21460748FFF7A9FD2846DC
:10608C00FEF70CF8054A0649034800F00BF80248E5
:10609C0007B030BD34E7032038E703203CE303208E
:1060AC00855B0D000B460146184600F065B90000F3
:1060BC00024B1868BFF35F8F704700BF4CE703209B
:1060CC00FDF7E3BF00F000B810B5002814BF04467C
:1060DC0001242046FFF702FA20B9FFF7E9FF08B1C7
:1060EC008047F6E710BD0000184B1A68D1075CBF5B
:1060FC0001221A60164B1A68D2075CBF01221A6083
:10610C00144B1A68D0075CBF01221A60124B1A6834
:10611C00D1075CBF01221A60104B1A68D2075CBF12
:10612C0001221A600E4B1A68D0075CBF01221A605C
:10613C000C4B1A68D1075CBF01221A600A4B1A6813
:10614C00D2075CBF01221A60704700BF6CE70320C6
:10615C0068E7032064E7032060E703205CE7032083
:10616C0058E7032054E7032050E70320244B1A6818
:10617C00D0075CBF01221A60224B1A68D1075CBFA2
:10618C0001221A60204B1A68D2075CBF01221A60E8
:10619C001E4B1A68D0075CBF01221A601C4B1A6890
:1061AC00D1075CBF01221A601A4B1A68D2075CBF78
:1061BC0001221A60184B1A68D0075CBF01221A60C2
:1061CC00164B1A68D1075CBF01221A60144B1A686F
:1061DC00D2075CBF01221A60124B1A68D0075CBF51
:1061EC0001221A60104B1A68D1075CBF01221A6099
:1061FC000E4B1A68D2075CBF01221A60704700BFB1
:10620C009CE7032098E7032094E7032090E7032002
:10621C008CE7032088E7032084E7032080E7032032
:10622C007CE7032078E7032074E7032070E7032062
:10623C00244B1A68D0075CBF01221A60224B1A68E3
:10624C00D1075CBF01221A60204B1A68D2075CBFD1
:10625C0001221A601E4B1A68D0075CBF01221A601B
:10626C001C4B1A68D1075CBF01221A601A4B1A68C2
:10627C00D2075CBF01221A60184B1A68D0075CBFAA
:10628C0001221A60164B1A68D1075CBF01221A60F2
:10629C00144B1A68D2075CBF01221A60124B1A68A1
:1062AC00D0075CBF01221A60104B1A68D1075CBF83
:1062BC0001221A600E4B1A68D2075CBF01221A60C9
:1062CC00704700BFCCE70320C8E70320C4E70320D6
:1062DC00C0E70320BCE70320B8E70320B4E70320A2
:1062EC00B0E70320ACE70320A8E70320A4E70320D2
:1062FC00A0E70320184B1A68D1075CBF01221A6073
:10630C00164B1A68D2075CBF01221A60144B1A682C
:10631C00D0075CBF01221A60124B1A68D1075CBF10
:10632C0001221A60104B1A68D2075CBF01221A6056
:10633C000E4B1A68D0075CBF01221A600C4B1A680E
:10634C00D1075CBF01221A600A4B1A68D2075CBFE6
:10635C0001221A60704700BFECE70320E8E7032036
:10636C00E4E70320E0E70320DCE70320D8E7032081
:10637C00D4E70320D0E7032010B5054C13462CB10D
:10638C000A4601460220AFF3008010BD204610BD26
:10639C000000000010B5431E0A44914204D011F8CD
:1063AC00014B03F8014FF8E710BD0244034693423A
:1063BC0002D003F8011BFAE77047000038B5124B06
:1063CC001C68A36B0546D3B91820FFF787F843F276
:1063DC000E33A06303804AF6CD33438041F234235D
:1063EC0083804EF26D63C3804DF6EC63038105230D
:1063FC0043810B23838101220023C0E90423A36B77
:10640C0000221D615A6138BD38E30320034613F89E
:10641C00012B002AFBD1181A013870471D400D00C2
:10642C0059400D0085400D0089400D000000000012
:10643C0054616720666F756E64004D494641524544
:10644C005F526561642829206661696C6564002D62
:10645C002D2D2D2D2D2D2D2D2D2D2D2D2D2D2D2D60
:10646C002D2D2D2D2D2D2D2D2D0054616720676F79
:10647C006E65000000C00140001002400020024088
:10648C002C01000018000000F40100002C01000099
:10649C0050000000000000000000000067550D00D7
:1064AC005D550D0053550D0049550D003D550D0022
:1064BC0031550D0025550D001D550D0013550D00C2
:1064CC0009550D00695E0D006261756400536572BB
:1064DC0069616C0053657269616C31007479706527
:1064EC0000706172616D00636D6400696400686EB8
:1064FC0064007374726D0066696C74006C766C0069
:10650C0061646448616E646C65720072656D6F766F
:10651C006548616E646C657200656E756D48616E80
:10652C00646C657273004A534F4E53747265616D9F
:10653C004C6F6748616E646C657200617070002509
:10654C003031307520005D20002564002C2000289F
:10655C00293A2000205B00636F6465203D200025F4
:10656C00690064657461696C73203D20000D0A003C
:10657C0066006C6E00666E00636F64650064657423
:10658C0061696C006E6F6E650074726163650069A1
:10659C006E666F007761726E006572726F7200705A
:1065AC00616E696300616C6C005A00252B3033649A
:1065BC003A253032750025592D256D2D256454252D
:1065CC00483A254D3A2553257A0061736374696DF9
:1065DC0065000000000000000000000091580D0054
:1065EC0081580D0083580D000000000000000000D1
:1065FC0069590D00B9590D00C7590D0045560D00CC
:10660C00A5590D006B590D0081590D00B3590D00A2
:10661C0097590D0065590D000000000000000000A6
:10662C00815A0D00D15A0D00DF5A0D0045560D0050
:10663C00955A0D00B75A0D00A35A0D00CB5A0D00F8
:10664C00835A0D00875A0D00000000000000000066
:10665C00855B0D00CF5B0D00A75B0D00875B0D000C
:10666C00AF5B0D00B75B0D00BF5B0D00C75B0D0092
:10667C000000000000000000675C0D005D5C0D0078
:10668C00535C0D00495C0D003D5C0D00315C0D0050
:10669C00255C0D001D5C0D00135C0D00095C0D00EC
:1066AC00695E0D000000000000000000E35D0D00BD
:1066BC00D95D0D00CF5D0D00855D0D00C35D0D0036
:1066CC00B75D0D00AB5D0D00A35D0D00995D0D0078
:1066DC008F5D0D00695E0D000000000000000000E1
:1066EC00015E0D000B5E0D00155E0D001F5E0D00B2
:1066FC00295E0D00355E0D00415E0D004D5E0D00F6
:10670C00555E0D005F5E0D00695E0D00000000001F
:10671C00000000000000000000000000000000006D
:10672C00000000000000000000000000000000005D
:10673C00000000000000000000000000000000004D
:10674C00000000000000000000000000000000003D
:10675C00000000000000000000000000000000002D
:10676C00000000000000000000000000000000001D
:10677C0043000000C1430D00494C0D00FD500D00BD
:10678C0071550D00D9550D001D560D000D570D00FE
:10679C001D570D0055570D00355D0D00ED5D0D00BD
:1067AC00355F0D00F5600D0079610D003D620D0047
:0467BC0001630D0068
:0467C00000000000D5
:1067C400D6650D00000000001C670D003C670D003D
:1067D4005C670D00000000000000000000000000E5
:1067E400000000007C670D000000000000000000B5
:1067F4000000000000000000000000000000000095
:106804000000000000000000000000000000000084
:106814000000000000000000000000000000000074
:0868240000000000D8E203208F
:10682C00FFFFFFFF00000102030405060708090A29
:10683C000B0C0D0E0F101112131415161718191A24
:08684C001B1C1D1E1F2028006B
:04685400785634122C
:04000003D000401CCD
:00000001FF
